{
	"thirddatatype.sol": {
		"Game": {
			"abi": [
				{
					"inputs": [
						{
							"internalType": "string",
							"name": "fullName",
							"type": "string"
						},
						{
							"internalType": "uint256",
							"name": "age",
							"type": "uint256"
						},
						{
							"internalType": "string",
							"name": "sex",
							"type": "string"
						}
					],
					"name": "addPlayer",
					"outputs": [],
					"stateMutability": "nonpayable",
					"type": "function"
				},
				{
					"inputs": [],
					"name": "countPlayer",
					"outputs": [
						{
							"internalType": "uint256",
							"name": "",
							"type": "uint256"
						}
					],
					"stateMutability": "view",
					"type": "function"
				},
				{
					"inputs": [
						{
							"internalType": "address",
							"name": "",
							"type": "address"
						}
					],
					"name": "players",
					"outputs": [
						{
							"internalType": "address",
							"name": "addressPlayer",
							"type": "address"
						},
						{
							"internalType": "string",
							"name": "fullName",
							"type": "string"
						},
						{
							"internalType": "uint256",
							"name": "age",
							"type": "uint256"
						},
						{
							"internalType": "string",
							"name": "sex",
							"type": "string"
						}
					],
					"stateMutability": "view",
					"type": "function"
				}
			],
			"devdoc": {
				"kind": "dev",
				"methods": {},
				"version": 1
			},
			"evm": {
				"assembly": "    /* \"thirddatatype.sol\":244:722  contract Game{... */\n  mstore(0x40, 0x80)\n    /* \"thirddatatype.sol\":287:288  0 */\n  0x00\n    /* \"thirddatatype.sol\":263:288  uint public countPlayer=0 */\n  dup1\n  sstore\n    /* \"thirddatatype.sol\":244:722  contract Game{... */\n  callvalue\n  dup1\n  iszero\n  tag_1\n  jumpi\n  0x00\n  dup1\n  revert\ntag_1:\n  pop\n  dataSize(sub_0)\n  dup1\n  dataOffset(sub_0)\n  0x00\n  codecopy\n  0x00\n  return\nstop\n\nsub_0: assembly {\n        /* \"thirddatatype.sol\":244:722  contract Game{... */\n      mstore(0x40, 0x80)\n      callvalue\n      dup1\n      iszero\n      tag_1\n      jumpi\n      0x00\n      dup1\n      revert\n    tag_1:\n      pop\n      jumpi(tag_2, lt(calldatasize, 0x04))\n      shr(0xe0, calldataload(0x00))\n      dup1\n      0xaaa006b2\n      eq\n      tag_3\n      jumpi\n      dup1\n      0xaab48c52\n      eq\n      tag_4\n      jumpi\n      dup1\n      0xe2eb41ff\n      eq\n      tag_5\n      jumpi\n    tag_2:\n      0x00\n      dup1\n      revert\n        /* \"thirddatatype.sol\":263:288  uint public countPlayer=0 */\n    tag_3:\n      tag_6\n      tag_7\n      jump\t// in\n    tag_6:\n      mload(0x40)\n      tag_8\n      swap2\n      swap1\n      tag_9\n      jump\t// in\n    tag_8:\n      mload(0x40)\n      dup1\n      swap2\n      sub\n      swap1\n      return\n        /* \"thirddatatype.sol\":492:720  function addPlayer(string memory fullName,uint age, string memory sex) public{... */\n    tag_4:\n      tag_10\n      0x04\n      dup1\n      calldatasize\n      sub\n      dup2\n      add\n      swap1\n      tag_11\n      swap2\n      swap1\n      tag_12\n      jump\t// in\n    tag_11:\n      tag_13\n      jump\t// in\n    tag_10:\n      stop\n        /* \"thirddatatype.sol\":325:366  mapping (address=> Player) public players */\n    tag_5:\n      tag_14\n      0x04\n      dup1\n      calldatasize\n      sub\n      dup2\n      add\n      swap1\n      tag_15\n      swap2\n      swap1\n      tag_16\n      jump\t// in\n    tag_15:\n      tag_17\n      jump\t// in\n    tag_14:\n      mload(0x40)\n      tag_18\n      swap5\n      swap4\n      swap3\n      swap2\n      swap1\n      tag_19\n      jump\t// in\n    tag_18:\n      mload(0x40)\n      dup1\n      swap2\n      sub\n      swap1\n      return\n        /* \"thirddatatype.sol\":263:288  uint public countPlayer=0 */\n    tag_7:\n      sload(0x00)\n      dup2\n      jump\t// out\n        /* \"thirddatatype.sol\":492:720  function addPlayer(string memory fullName,uint age, string memory sex) public{... */\n    tag_13:\n        /* \"thirddatatype.sol\":601:639  Player(msg.sender,fullName, age, sex ) */\n      mload(0x40)\n      dup1\n      0x80\n      add\n      0x40\n      mstore\n      dup1\n        /* \"thirddatatype.sol\":608:618  msg.sender */\n      caller\n        /* \"thirddatatype.sol\":601:639  Player(msg.sender,fullName, age, sex ) */\n      0xffffffffffffffffffffffffffffffffffffffff\n      and\n      dup2\n      mstore\n      0x20\n      add\n        /* \"thirddatatype.sol\":619:627  fullName */\n      dup5\n        /* \"thirddatatype.sol\":601:639  Player(msg.sender,fullName, age, sex ) */\n      dup2\n      mstore\n      0x20\n      add\n        /* \"thirddatatype.sol\":629:632  age */\n      dup4\n        /* \"thirddatatype.sol\":601:639  Player(msg.sender,fullName, age, sex ) */\n      dup2\n      mstore\n      0x20\n      add\n        /* \"thirddatatype.sol\":634:637  sex */\n      dup3\n        /* \"thirddatatype.sol\":601:639  Player(msg.sender,fullName, age, sex ) */\n      dup2\n      mstore\n      pop\n        /* \"thirddatatype.sol\":579:586  players */\n      0x01\n        /* \"thirddatatype.sol\":579:598  players[msg.sender] */\n      0x00\n        /* \"thirddatatype.sol\":587:597  msg.sender */\n      caller\n        /* \"thirddatatype.sol\":579:598  players[msg.sender] */\n      0xffffffffffffffffffffffffffffffffffffffff\n      and\n      0xffffffffffffffffffffffffffffffffffffffff\n      and\n      dup2\n      mstore\n      0x20\n      add\n      swap1\n      dup2\n      mstore\n      0x20\n      add\n      0x00\n      keccak256\n        /* \"thirddatatype.sol\":579:639  players[msg.sender] = Player(msg.sender,fullName, age, sex ) */\n      0x00\n      dup3\n      add\n      mload\n      dup2\n      0x00\n      add\n      exp(0x0100, 0x00)\n      dup2\n      sload\n      dup2\n      0xffffffffffffffffffffffffffffffffffffffff\n      mul\n      not\n      and\n      swap1\n      dup4\n      0xffffffffffffffffffffffffffffffffffffffff\n      and\n      mul\n      or\n      swap1\n      sstore\n      pop\n      0x20\n      dup3\n      add\n      mload\n      dup2\n      0x01\n      add\n      swap1\n      dup2\n      tag_21\n      swap2\n      swap1\n      tag_22\n      jump\t// in\n    tag_21:\n      pop\n      0x40\n      dup3\n      add\n      mload\n      dup2\n      0x02\n      add\n      sstore\n      0x60\n      dup3\n      add\n      mload\n      dup2\n      0x03\n      add\n      swap1\n      dup2\n      tag_23\n      swap2\n      swap1\n      tag_22\n      jump\t// in\n    tag_23:\n      pop\n      swap1\n      pop\n      pop\n        /* \"thirddatatype.sol\":712:713  1 */\n      0x01\n        /* \"thirddatatype.sol\":699:710  countPlayer */\n      0x00\n      dup1\n        /* \"thirddatatype.sol\":699:713  countPlayer+=1 */\n      dup3\n      dup3\n      sload\n      tag_24\n      swap2\n      swap1\n      tag_25\n      jump\t// in\n    tag_24:\n      swap3\n      pop\n      pop\n      dup2\n      swap1\n      sstore\n      pop\n        /* \"thirddatatype.sol\":492:720  function addPlayer(string memory fullName,uint age, string memory sex) public{... */\n      pop\n      pop\n      pop\n      jump\t// out\n        /* \"thirddatatype.sol\":325:366  mapping (address=> Player) public players */\n    tag_17:\n      mstore(0x20, 0x01)\n      dup1\n      0x00\n      mstore\n      keccak256(0x00, 0x40)\n      0x00\n      swap2\n      pop\n      swap1\n      pop\n      dup1\n      0x00\n      add\n      0x00\n      swap1\n      sload\n      swap1\n      0x0100\n      exp\n      swap1\n      div\n      0xffffffffffffffffffffffffffffffffffffffff\n      and\n      swap1\n      dup1\n      0x01\n      add\n      dup1\n      sload\n      tag_26\n      swap1\n      tag_27\n      jump\t// in\n    tag_26:\n      dup1\n      0x1f\n      add\n      0x20\n      dup1\n      swap2\n      div\n      mul\n      0x20\n      add\n      mload(0x40)\n      swap1\n      dup2\n      add\n      0x40\n      mstore\n      dup1\n      swap3\n      swap2\n      swap1\n      dup2\n      dup2\n      mstore\n      0x20\n      add\n      dup3\n      dup1\n      sload\n      tag_28\n      swap1\n      tag_27\n      jump\t// in\n    tag_28:\n      dup1\n      iszero\n      tag_29\n      jumpi\n      dup1\n      0x1f\n      lt\n      tag_30\n      jumpi\n      0x0100\n      dup1\n      dup4\n      sload\n      div\n      mul\n      dup4\n      mstore\n      swap2\n      0x20\n      add\n      swap2\n      jump(tag_29)\n    tag_30:\n      dup3\n      add\n      swap2\n      swap1\n      0x00\n      mstore\n      keccak256(0x00, 0x20)\n      swap1\n    tag_31:\n      dup2\n      sload\n      dup2\n      mstore\n      swap1\n      0x01\n      add\n      swap1\n      0x20\n      add\n      dup1\n      dup4\n      gt\n      tag_31\n      jumpi\n      dup3\n      swap1\n      sub\n      0x1f\n      and\n      dup3\n      add\n      swap2\n    tag_29:\n      pop\n      pop\n      pop\n      pop\n      pop\n      swap1\n      dup1\n      0x02\n      add\n      sload\n      swap1\n      dup1\n      0x03\n      add\n      dup1\n      sload\n      tag_32\n      swap1\n      tag_27\n      jump\t// in\n    tag_32:\n      dup1\n      0x1f\n      add\n      0x20\n      dup1\n      swap2\n      div\n      mul\n      0x20\n      add\n      mload(0x40)\n      swap1\n      dup2\n      add\n      0x40\n      mstore\n      dup1\n      swap3\n      swap2\n      swap1\n      dup2\n      dup2\n      mstore\n      0x20\n      add\n      dup3\n      dup1\n      sload\n      tag_33\n      swap1\n      tag_27\n      jump\t// in\n    tag_33:\n      dup1\n      iszero\n      tag_34\n      jumpi\n      dup1\n      0x1f\n      lt\n      tag_35\n      jumpi\n      0x0100\n      dup1\n      dup4\n      sload\n      div\n      mul\n      dup4\n      mstore\n      swap2\n      0x20\n      add\n      swap2\n      jump(tag_34)\n    tag_35:\n      dup3\n      add\n      swap2\n      swap1\n      0x00\n      mstore\n      keccak256(0x00, 0x20)\n      swap1\n    tag_36:\n      dup2\n      sload\n      dup2\n      mstore\n      swap1\n      0x01\n      add\n      swap1\n      0x20\n      add\n      dup1\n      dup4\n      gt\n      tag_36\n      jumpi\n      dup3\n      swap1\n      sub\n      0x1f\n      and\n      dup3\n      add\n      swap2\n    tag_34:\n      pop\n      pop\n      pop\n      pop\n      pop\n      swap1\n      pop\n      dup5\n      jump\t// out\n        /* \"#utility.yul\":7:84   */\n    tag_37:\n        /* \"#utility.yul\":44:51   */\n      0x00\n        /* \"#utility.yul\":73:78   */\n      dup2\n        /* \"#utility.yul\":62:78   */\n      swap1\n      pop\n        /* \"#utility.yul\":7:84   */\n      swap2\n      swap1\n      pop\n      jump\t// out\n        /* \"#utility.yul\":90:208   */\n    tag_38:\n        /* \"#utility.yul\":177:201   */\n      tag_83\n        /* \"#utility.yul\":195:200   */\n      dup2\n        /* \"#utility.yul\":177:201   */\n      tag_37\n      jump\t// in\n    tag_83:\n        /* \"#utility.yul\":172:175   */\n      dup3\n        /* \"#utility.yul\":165:202   */\n      mstore\n        /* \"#utility.yul\":90:208   */\n      pop\n      pop\n      jump\t// out\n        /* \"#utility.yul\":214:436   */\n    tag_9:\n        /* \"#utility.yul\":307:311   */\n      0x00\n        /* \"#utility.yul\":345:347   */\n      0x20\n        /* \"#utility.yul\":334:343   */\n      dup3\n        /* \"#utility.yul\":330:348   */\n      add\n        /* \"#utility.yul\":322:348   */\n      swap1\n      pop\n        /* \"#utility.yul\":358:429   */\n      tag_85\n        /* \"#utility.yul\":426:427   */\n      0x00\n        /* \"#utility.yul\":415:424   */\n      dup4\n        /* \"#utility.yul\":411:428   */\n      add\n        /* \"#utility.yul\":402:408   */\n      dup5\n        /* \"#utility.yul\":358:429   */\n      tag_38\n      jump\t// in\n    tag_85:\n        /* \"#utility.yul\":214:436   */\n      swap3\n      swap2\n      pop\n      pop\n      jump\t// out\n        /* \"#utility.yul\":442:517   */\n    tag_39:\n        /* \"#utility.yul\":475:481   */\n      0x00\n        /* \"#utility.yul\":508:510   */\n      0x40\n        /* \"#utility.yul\":502:511   */\n      mload\n        /* \"#utility.yul\":492:511   */\n      swap1\n      pop\n        /* \"#utility.yul\":442:517   */\n      swap1\n      jump\t// out\n        /* \"#utility.yul\":523:640   */\n    tag_40:\n        /* \"#utility.yul\":632:633   */\n      0x00\n        /* \"#utility.yul\":629:630   */\n      dup1\n        /* \"#utility.yul\":622:634   */\n      revert\n        /* \"#utility.yul\":646:763   */\n    tag_41:\n        /* \"#utility.yul\":755:756   */\n      0x00\n        /* \"#utility.yul\":752:753   */\n      dup1\n        /* \"#utility.yul\":745:757   */\n      revert\n        /* \"#utility.yul\":769:886   */\n    tag_42:\n        /* \"#utility.yul\":878:879   */\n      0x00\n        /* \"#utility.yul\":875:876   */\n      dup1\n        /* \"#utility.yul\":868:880   */\n      revert\n        /* \"#utility.yul\":892:1009   */\n    tag_43:\n        /* \"#utility.yul\":1001:1002   */\n      0x00\n        /* \"#utility.yul\":998:999   */\n      dup1\n        /* \"#utility.yul\":991:1003   */\n      revert\n        /* \"#utility.yul\":1015:1117   */\n    tag_44:\n        /* \"#utility.yul\":1056:1062   */\n      0x00\n        /* \"#utility.yul\":1107:1109   */\n      0x1f\n        /* \"#utility.yul\":1103:1110   */\n      not\n        /* \"#utility.yul\":1098:1100   */\n      0x1f\n        /* \"#utility.yul\":1091:1096   */\n      dup4\n        /* \"#utility.yul\":1087:1101   */\n      add\n        /* \"#utility.yul\":1083:1111   */\n      and\n        /* \"#utility.yul\":1073:1111   */\n      swap1\n      pop\n        /* \"#utility.yul\":1015:1117   */\n      swap2\n      swap1\n      pop\n      jump\t// out\n        /* \"#utility.yul\":1123:1303   */\n    tag_45:\n        /* \"#utility.yul\":1171:1248   */\n      0x4e487b7100000000000000000000000000000000000000000000000000000000\n        /* \"#utility.yul\":1168:1169   */\n      0x00\n        /* \"#utility.yul\":1161:1249   */\n      mstore\n        /* \"#utility.yul\":1268:1272   */\n      0x41\n        /* \"#utility.yul\":1265:1266   */\n      0x04\n        /* \"#utility.yul\":1258:1273   */\n      mstore\n        /* \"#utility.yul\":1292:1296   */\n      0x24\n        /* \"#utility.yul\":1289:1290   */\n      0x00\n        /* \"#utility.yul\":1282:1297   */\n      revert\n        /* \"#utility.yul\":1309:1590   */\n    tag_46:\n        /* \"#utility.yul\":1392:1419   */\n      tag_94\n        /* \"#utility.yul\":1414:1418   */\n      dup3\n        /* \"#utility.yul\":1392:1419   */\n      tag_44\n      jump\t// in\n    tag_94:\n        /* \"#utility.yul\":1384:1390   */\n      dup2\n        /* \"#utility.yul\":1380:1420   */\n      add\n        /* \"#utility.yul\":1522:1528   */\n      dup2\n        /* \"#utility.yul\":1510:1520   */\n      dup2\n        /* \"#utility.yul\":1507:1529   */\n      lt\n        /* \"#utility.yul\":1486:1504   */\n      0xffffffffffffffff\n        /* \"#utility.yul\":1474:1484   */\n      dup3\n        /* \"#utility.yul\":1471:1505   */\n      gt\n        /* \"#utility.yul\":1468:1530   */\n      or\n        /* \"#utility.yul\":1465:1553   */\n      iszero\n      tag_95\n      jumpi\n        /* \"#utility.yul\":1533:1551   */\n      tag_96\n      tag_45\n      jump\t// in\n    tag_96:\n        /* \"#utility.yul\":1465:1553   */\n    tag_95:\n        /* \"#utility.yul\":1573:1583   */\n      dup1\n        /* \"#utility.yul\":1569:1571   */\n      0x40\n        /* \"#utility.yul\":1562:1584   */\n      mstore\n        /* \"#utility.yul\":1352:1590   */\n      pop\n        /* \"#utility.yul\":1309:1590   */\n      pop\n      pop\n      jump\t// out\n        /* \"#utility.yul\":1596:1725   */\n    tag_47:\n        /* \"#utility.yul\":1630:1636   */\n      0x00\n        /* \"#utility.yul\":1657:1677   */\n      tag_98\n      tag_39\n      jump\t// in\n    tag_98:\n        /* \"#utility.yul\":1647:1677   */\n      swap1\n      pop\n        /* \"#utility.yul\":1686:1719   */\n      tag_99\n        /* \"#utility.yul\":1714:1718   */\n      dup3\n        /* \"#utility.yul\":1706:1712   */\n      dup3\n        /* \"#utility.yul\":1686:1719   */\n      tag_46\n      jump\t// in\n    tag_99:\n        /* \"#utility.yul\":1596:1725   */\n      swap2\n      swap1\n      pop\n      jump\t// out\n        /* \"#utility.yul\":1731:2039   */\n    tag_48:\n        /* \"#utility.yul\":1793:1797   */\n      0x00\n        /* \"#utility.yul\":1883:1901   */\n      0xffffffffffffffff\n        /* \"#utility.yul\":1875:1881   */\n      dup3\n        /* \"#utility.yul\":1872:1902   */\n      gt\n        /* \"#utility.yul\":1869:1925   */\n      iszero\n      tag_101\n      jumpi\n        /* \"#utility.yul\":1905:1923   */\n      tag_102\n      tag_45\n      jump\t// in\n    tag_102:\n        /* \"#utility.yul\":1869:1925   */\n    tag_101:\n        /* \"#utility.yul\":1943:1972   */\n      tag_103\n        /* \"#utility.yul\":1965:1971   */\n      dup3\n        /* \"#utility.yul\":1943:1972   */\n      tag_44\n      jump\t// in\n    tag_103:\n        /* \"#utility.yul\":1935:1972   */\n      swap1\n      pop\n        /* \"#utility.yul\":2027:2031   */\n      0x20\n        /* \"#utility.yul\":2021:2025   */\n      dup2\n        /* \"#utility.yul\":2017:2032   */\n      add\n        /* \"#utility.yul\":2009:2032   */\n      swap1\n      pop\n        /* \"#utility.yul\":1731:2039   */\n      swap2\n      swap1\n      pop\n      jump\t// out\n        /* \"#utility.yul\":2045:2193   */\n    tag_49:\n        /* \"#utility.yul\":2143:2149   */\n      dup3\n        /* \"#utility.yul\":2138:2141   */\n      dup2\n        /* \"#utility.yul\":2133:2136   */\n      dup4\n        /* \"#utility.yul\":2120:2150   */\n      calldatacopy\n        /* \"#utility.yul\":2184:2185   */\n      0x00\n        /* \"#utility.yul\":2175:2181   */\n      dup4\n        /* \"#utility.yul\":2170:2173   */\n      dup4\n        /* \"#utility.yul\":2166:2182   */\n      add\n        /* \"#utility.yul\":2159:2186   */\n      mstore\n        /* \"#utility.yul\":2045:2193   */\n      pop\n      pop\n      pop\n      jump\t// out\n        /* \"#utility.yul\":2199:2624   */\n    tag_50:\n        /* \"#utility.yul\":2277:2282   */\n      0x00\n        /* \"#utility.yul\":2302:2368   */\n      tag_106\n        /* \"#utility.yul\":2318:2367   */\n      tag_107\n        /* \"#utility.yul\":2360:2366   */\n      dup5\n        /* \"#utility.yul\":2318:2367   */\n      tag_48\n      jump\t// in\n    tag_107:\n        /* \"#utility.yul\":2302:2368   */\n      tag_47\n      jump\t// in\n    tag_106:\n        /* \"#utility.yul\":2293:2368   */\n      swap1\n      pop\n        /* \"#utility.yul\":2391:2397   */\n      dup3\n        /* \"#utility.yul\":2384:2389   */\n      dup2\n        /* \"#utility.yul\":2377:2398   */\n      mstore\n        /* \"#utility.yul\":2429:2433   */\n      0x20\n        /* \"#utility.yul\":2422:2427   */\n      dup2\n        /* \"#utility.yul\":2418:2434   */\n      add\n        /* \"#utility.yul\":2467:2470   */\n      dup5\n        /* \"#utility.yul\":2458:2464   */\n      dup5\n        /* \"#utility.yul\":2453:2456   */\n      dup5\n        /* \"#utility.yul\":2449:2465   */\n      add\n        /* \"#utility.yul\":2446:2471   */\n      gt\n        /* \"#utility.yul\":2443:2555   */\n      iszero\n      tag_108\n      jumpi\n        /* \"#utility.yul\":2474:2553   */\n      tag_109\n      tag_43\n      jump\t// in\n    tag_109:\n        /* \"#utility.yul\":2443:2555   */\n    tag_108:\n        /* \"#utility.yul\":2564:2618   */\n      tag_110\n        /* \"#utility.yul\":2611:2617   */\n      dup5\n        /* \"#utility.yul\":2606:2609   */\n      dup3\n        /* \"#utility.yul\":2601:2604   */\n      dup6\n        /* \"#utility.yul\":2564:2618   */\n      tag_49\n      jump\t// in\n    tag_110:\n        /* \"#utility.yul\":2283:2624   */\n      pop\n        /* \"#utility.yul\":2199:2624   */\n      swap4\n      swap3\n      pop\n      pop\n      pop\n      jump\t// out\n        /* \"#utility.yul\":2644:2984   */\n    tag_51:\n        /* \"#utility.yul\":2700:2705   */\n      0x00\n        /* \"#utility.yul\":2749:2752   */\n      dup3\n        /* \"#utility.yul\":2742:2746   */\n      0x1f\n        /* \"#utility.yul\":2734:2740   */\n      dup4\n        /* \"#utility.yul\":2730:2747   */\n      add\n        /* \"#utility.yul\":2726:2753   */\n      slt\n        /* \"#utility.yul\":2716:2838   */\n      tag_112\n      jumpi\n        /* \"#utility.yul\":2757:2836   */\n      tag_113\n      tag_42\n      jump\t// in\n    tag_113:\n        /* \"#utility.yul\":2716:2838   */\n    tag_112:\n        /* \"#utility.yul\":2874:2880   */\n      dup2\n        /* \"#utility.yul\":2861:2881   */\n      calldataload\n        /* \"#utility.yul\":2899:2978   */\n      tag_114\n        /* \"#utility.yul\":2974:2977   */\n      dup5\n        /* \"#utility.yul\":2966:2972   */\n      dup3\n        /* \"#utility.yul\":2959:2963   */\n      0x20\n        /* \"#utility.yul\":2951:2957   */\n      dup7\n        /* \"#utility.yul\":2947:2964   */\n      add\n        /* \"#utility.yul\":2899:2978   */\n      tag_50\n      jump\t// in\n    tag_114:\n        /* \"#utility.yul\":2890:2978   */\n      swap2\n      pop\n        /* \"#utility.yul\":2706:2984   */\n      pop\n        /* \"#utility.yul\":2644:2984   */\n      swap3\n      swap2\n      pop\n      pop\n      jump\t// out\n        /* \"#utility.yul\":2990:3112   */\n    tag_52:\n        /* \"#utility.yul\":3063:3087   */\n      tag_116\n        /* \"#utility.yul\":3081:3086   */\n      dup2\n        /* \"#utility.yul\":3063:3087   */\n      tag_37\n      jump\t// in\n    tag_116:\n        /* \"#utility.yul\":3056:3061   */\n      dup2\n        /* \"#utility.yul\":3053:3088   */\n      eq\n        /* \"#utility.yul\":3043:3106   */\n      tag_117\n      jumpi\n        /* \"#utility.yul\":3102:3103   */\n      0x00\n        /* \"#utility.yul\":3099:3100   */\n      dup1\n        /* \"#utility.yul\":3092:3104   */\n      revert\n        /* \"#utility.yul\":3043:3106   */\n    tag_117:\n        /* \"#utility.yul\":2990:3112   */\n      pop\n      jump\t// out\n        /* \"#utility.yul\":3118:3257   */\n    tag_53:\n        /* \"#utility.yul\":3164:3169   */\n      0x00\n        /* \"#utility.yul\":3202:3208   */\n      dup2\n        /* \"#utility.yul\":3189:3209   */\n      calldataload\n        /* \"#utility.yul\":3180:3209   */\n      swap1\n      pop\n        /* \"#utility.yul\":3218:3251   */\n      tag_119\n        /* \"#utility.yul\":3245:3250   */\n      dup2\n        /* \"#utility.yul\":3218:3251   */\n      tag_52\n      jump\t// in\n    tag_119:\n        /* \"#utility.yul\":3118:3257   */\n      swap3\n      swap2\n      pop\n      pop\n      jump\t// out\n        /* \"#utility.yul\":3263:4242   */\n    tag_12:\n        /* \"#utility.yul\":3360:3366   */\n      0x00\n        /* \"#utility.yul\":3368:3374   */\n      dup1\n        /* \"#utility.yul\":3376:3382   */\n      0x00\n        /* \"#utility.yul\":3425:3427   */\n      0x60\n        /* \"#utility.yul\":3413:3422   */\n      dup5\n        /* \"#utility.yul\":3404:3411   */\n      dup7\n        /* \"#utility.yul\":3400:3423   */\n      sub\n        /* \"#utility.yul\":3396:3428   */\n      slt\n        /* \"#utility.yul\":3393:3512   */\n      iszero\n      tag_121\n      jumpi\n        /* \"#utility.yul\":3431:3510   */\n      tag_122\n      tag_40\n      jump\t// in\n    tag_122:\n        /* \"#utility.yul\":3393:3512   */\n    tag_121:\n        /* \"#utility.yul\":3579:3580   */\n      0x00\n        /* \"#utility.yul\":3568:3577   */\n      dup5\n        /* \"#utility.yul\":3564:3581   */\n      add\n        /* \"#utility.yul\":3551:3582   */\n      calldataload\n        /* \"#utility.yul\":3609:3627   */\n      0xffffffffffffffff\n        /* \"#utility.yul\":3601:3607   */\n      dup2\n        /* \"#utility.yul\":3598:3628   */\n      gt\n        /* \"#utility.yul\":3595:3712   */\n      iszero\n      tag_123\n      jumpi\n        /* \"#utility.yul\":3631:3710   */\n      tag_124\n      tag_41\n      jump\t// in\n    tag_124:\n        /* \"#utility.yul\":3595:3712   */\n    tag_123:\n        /* \"#utility.yul\":3736:3799   */\n      tag_125\n        /* \"#utility.yul\":3791:3798   */\n      dup7\n        /* \"#utility.yul\":3782:3788   */\n      dup3\n        /* \"#utility.yul\":3771:3780   */\n      dup8\n        /* \"#utility.yul\":3767:3789   */\n      add\n        /* \"#utility.yul\":3736:3799   */\n      tag_51\n      jump\t// in\n    tag_125:\n        /* \"#utility.yul\":3726:3799   */\n      swap4\n      pop\n        /* \"#utility.yul\":3522:3809   */\n      pop\n        /* \"#utility.yul\":3848:3850   */\n      0x20\n        /* \"#utility.yul\":3874:3927   */\n      tag_126\n        /* \"#utility.yul\":3919:3926   */\n      dup7\n        /* \"#utility.yul\":3910:3916   */\n      dup3\n        /* \"#utility.yul\":3899:3908   */\n      dup8\n        /* \"#utility.yul\":3895:3917   */\n      add\n        /* \"#utility.yul\":3874:3927   */\n      tag_53\n      jump\t// in\n    tag_126:\n        /* \"#utility.yul\":3864:3927   */\n      swap3\n      pop\n        /* \"#utility.yul\":3819:3937   */\n      pop\n        /* \"#utility.yul\":4004:4006   */\n      0x40\n        /* \"#utility.yul\":3993:4002   */\n      dup5\n        /* \"#utility.yul\":3989:4007   */\n      add\n        /* \"#utility.yul\":3976:4008   */\n      calldataload\n        /* \"#utility.yul\":4035:4053   */\n      0xffffffffffffffff\n        /* \"#utility.yul\":4027:4033   */\n      dup2\n        /* \"#utility.yul\":4024:4054   */\n      gt\n        /* \"#utility.yul\":4021:4138   */\n      iszero\n      tag_127\n      jumpi\n        /* \"#utility.yul\":4057:4136   */\n      tag_128\n      tag_41\n      jump\t// in\n    tag_128:\n        /* \"#utility.yul\":4021:4138   */\n    tag_127:\n        /* \"#utility.yul\":4162:4225   */\n      tag_129\n        /* \"#utility.yul\":4217:4224   */\n      dup7\n        /* \"#utility.yul\":4208:4214   */\n      dup3\n        /* \"#utility.yul\":4197:4206   */\n      dup8\n        /* \"#utility.yul\":4193:4215   */\n      add\n        /* \"#utility.yul\":4162:4225   */\n      tag_51\n      jump\t// in\n    tag_129:\n        /* \"#utility.yul\":4152:4225   */\n      swap2\n      pop\n        /* \"#utility.yul\":3947:4235   */\n      pop\n        /* \"#utility.yul\":3263:4242   */\n      swap3\n      pop\n      swap3\n      pop\n      swap3\n      jump\t// out\n        /* \"#utility.yul\":4248:4374   */\n    tag_54:\n        /* \"#utility.yul\":4285:4292   */\n      0x00\n        /* \"#utility.yul\":4325:4367   */\n      0xffffffffffffffffffffffffffffffffffffffff\n        /* \"#utility.yul\":4318:4323   */\n      dup3\n        /* \"#utility.yul\":4314:4368   */\n      and\n        /* \"#utility.yul\":4303:4368   */\n      swap1\n      pop\n        /* \"#utility.yul\":4248:4374   */\n      swap2\n      swap1\n      pop\n      jump\t// out\n        /* \"#utility.yul\":4380:4476   */\n    tag_55:\n        /* \"#utility.yul\":4417:4424   */\n      0x00\n        /* \"#utility.yul\":4446:4470   */\n      tag_132\n        /* \"#utility.yul\":4464:4469   */\n      dup3\n        /* \"#utility.yul\":4446:4470   */\n      tag_54\n      jump\t// in\n    tag_132:\n        /* \"#utility.yul\":4435:4470   */\n      swap1\n      pop\n        /* \"#utility.yul\":4380:4476   */\n      swap2\n      swap1\n      pop\n      jump\t// out\n        /* \"#utility.yul\":4482:4604   */\n    tag_56:\n        /* \"#utility.yul\":4555:4579   */\n      tag_134\n        /* \"#utility.yul\":4573:4578   */\n      dup2\n        /* \"#utility.yul\":4555:4579   */\n      tag_55\n      jump\t// in\n    tag_134:\n        /* \"#utility.yul\":4548:4553   */\n      dup2\n        /* \"#utility.yul\":4545:4580   */\n      eq\n        /* \"#utility.yul\":4535:4598   */\n      tag_135\n      jumpi\n        /* \"#utility.yul\":4594:4595   */\n      0x00\n        /* \"#utility.yul\":4591:4592   */\n      dup1\n        /* \"#utility.yul\":4584:4596   */\n      revert\n        /* \"#utility.yul\":4535:4598   */\n    tag_135:\n        /* \"#utility.yul\":4482:4604   */\n      pop\n      jump\t// out\n        /* \"#utility.yul\":4610:4749   */\n    tag_57:\n        /* \"#utility.yul\":4656:4661   */\n      0x00\n        /* \"#utility.yul\":4694:4700   */\n      dup2\n        /* \"#utility.yul\":4681:4701   */\n      calldataload\n        /* \"#utility.yul\":4672:4701   */\n      swap1\n      pop\n        /* \"#utility.yul\":4710:4743   */\n      tag_137\n        /* \"#utility.yul\":4737:4742   */\n      dup2\n        /* \"#utility.yul\":4710:4743   */\n      tag_56\n      jump\t// in\n    tag_137:\n        /* \"#utility.yul\":4610:4749   */\n      swap3\n      swap2\n      pop\n      pop\n      jump\t// out\n        /* \"#utility.yul\":4755:5084   */\n    tag_16:\n        /* \"#utility.yul\":4814:4820   */\n      0x00\n        /* \"#utility.yul\":4863:4865   */\n      0x20\n        /* \"#utility.yul\":4851:4860   */\n      dup3\n        /* \"#utility.yul\":4842:4849   */\n      dup5\n        /* \"#utility.yul\":4838:4861   */\n      sub\n        /* \"#utility.yul\":4834:4866   */\n      slt\n        /* \"#utility.yul\":4831:4950   */\n      iszero\n      tag_139\n      jumpi\n        /* \"#utility.yul\":4869:4948   */\n      tag_140\n      tag_40\n      jump\t// in\n    tag_140:\n        /* \"#utility.yul\":4831:4950   */\n    tag_139:\n        /* \"#utility.yul\":4989:4990   */\n      0x00\n        /* \"#utility.yul\":5014:5067   */\n      tag_141\n        /* \"#utility.yul\":5059:5066   */\n      dup5\n        /* \"#utility.yul\":5050:5056   */\n      dup3\n        /* \"#utility.yul\":5039:5048   */\n      dup6\n        /* \"#utility.yul\":5035:5057   */\n      add\n        /* \"#utility.yul\":5014:5067   */\n      tag_57\n      jump\t// in\n    tag_141:\n        /* \"#utility.yul\":5004:5067   */\n      swap2\n      pop\n        /* \"#utility.yul\":4960:5077   */\n      pop\n        /* \"#utility.yul\":4755:5084   */\n      swap3\n      swap2\n      pop\n      pop\n      jump\t// out\n        /* \"#utility.yul\":5090:5208   */\n    tag_58:\n        /* \"#utility.yul\":5177:5201   */\n      tag_143\n        /* \"#utility.yul\":5195:5200   */\n      dup2\n        /* \"#utility.yul\":5177:5201   */\n      tag_55\n      jump\t// in\n    tag_143:\n        /* \"#utility.yul\":5172:5175   */\n      dup3\n        /* \"#utility.yul\":5165:5202   */\n      mstore\n        /* \"#utility.yul\":5090:5208   */\n      pop\n      pop\n      jump\t// out\n        /* \"#utility.yul\":5214:5313   */\n    tag_59:\n        /* \"#utility.yul\":5266:5272   */\n      0x00\n        /* \"#utility.yul\":5300:5305   */\n      dup2\n        /* \"#utility.yul\":5294:5306   */\n      mload\n        /* \"#utility.yul\":5284:5306   */\n      swap1\n      pop\n        /* \"#utility.yul\":5214:5313   */\n      swap2\n      swap1\n      pop\n      jump\t// out\n        /* \"#utility.yul\":5319:5488   */\n    tag_60:\n        /* \"#utility.yul\":5403:5414   */\n      0x00\n        /* \"#utility.yul\":5437:5443   */\n      dup3\n        /* \"#utility.yul\":5432:5435   */\n      dup3\n        /* \"#utility.yul\":5425:5444   */\n      mstore\n        /* \"#utility.yul\":5477:5481   */\n      0x20\n        /* \"#utility.yul\":5472:5475   */\n      dup3\n        /* \"#utility.yul\":5468:5482   */\n      add\n        /* \"#utility.yul\":5453:5482   */\n      swap1\n      pop\n        /* \"#utility.yul\":5319:5488   */\n      swap3\n      swap2\n      pop\n      pop\n      jump\t// out\n        /* \"#utility.yul\":5494:5633   */\n    tag_61:\n        /* \"#utility.yul\":5583:5589   */\n      dup3\n        /* \"#utility.yul\":5578:5581   */\n      dup2\n        /* \"#utility.yul\":5573:5576   */\n      dup4\n        /* \"#utility.yul\":5567:5590   */\n      mcopy\n        /* \"#utility.yul\":5624:5625   */\n      0x00\n        /* \"#utility.yul\":5615:5621   */\n      dup4\n        /* \"#utility.yul\":5610:5613   */\n      dup4\n        /* \"#utility.yul\":5606:5622   */\n      add\n        /* \"#utility.yul\":5599:5626   */\n      mstore\n        /* \"#utility.yul\":5494:5633   */\n      pop\n      pop\n      pop\n      jump\t// out\n        /* \"#utility.yul\":5639:6016   */\n    tag_62:\n        /* \"#utility.yul\":5727:5730   */\n      0x00\n        /* \"#utility.yul\":5755:5794   */\n      tag_148\n        /* \"#utility.yul\":5788:5793   */\n      dup3\n        /* \"#utility.yul\":5755:5794   */\n      tag_59\n      jump\t// in\n    tag_148:\n        /* \"#utility.yul\":5810:5881   */\n      tag_149\n        /* \"#utility.yul\":5874:5880   */\n      dup2\n        /* \"#utility.yul\":5869:5872   */\n      dup6\n        /* \"#utility.yul\":5810:5881   */\n      tag_60\n      jump\t// in\n    tag_149:\n        /* \"#utility.yul\":5803:5881   */\n      swap4\n      pop\n        /* \"#utility.yul\":5890:5955   */\n      tag_150\n        /* \"#utility.yul\":5948:5954   */\n      dup2\n        /* \"#utility.yul\":5943:5946   */\n      dup6\n        /* \"#utility.yul\":5936:5940   */\n      0x20\n        /* \"#utility.yul\":5929:5934   */\n      dup7\n        /* \"#utility.yul\":5925:5941   */\n      add\n        /* \"#utility.yul\":5890:5955   */\n      tag_61\n      jump\t// in\n    tag_150:\n        /* \"#utility.yul\":5980:6009   */\n      tag_151\n        /* \"#utility.yul\":6002:6008   */\n      dup2\n        /* \"#utility.yul\":5980:6009   */\n      tag_44\n      jump\t// in\n    tag_151:\n        /* \"#utility.yul\":5975:5978   */\n      dup5\n        /* \"#utility.yul\":5971:6010   */\n      add\n        /* \"#utility.yul\":5964:6010   */\n      swap2\n      pop\n        /* \"#utility.yul\":5731:6016   */\n      pop\n        /* \"#utility.yul\":5639:6016   */\n      swap3\n      swap2\n      pop\n      pop\n      jump\t// out\n        /* \"#utility.yul\":6022:6757   */\n    tag_19:\n        /* \"#utility.yul\":6239:6243   */\n      0x00\n        /* \"#utility.yul\":6277:6280   */\n      0x80\n        /* \"#utility.yul\":6266:6275   */\n      dup3\n        /* \"#utility.yul\":6262:6281   */\n      add\n        /* \"#utility.yul\":6254:6281   */\n      swap1\n      pop\n        /* \"#utility.yul\":6291:6362   */\n      tag_153\n        /* \"#utility.yul\":6359:6360   */\n      0x00\n        /* \"#utility.yul\":6348:6357   */\n      dup4\n        /* \"#utility.yul\":6344:6361   */\n      add\n        /* \"#utility.yul\":6335:6341   */\n      dup8\n        /* \"#utility.yul\":6291:6362   */\n      tag_58\n      jump\t// in\n    tag_153:\n        /* \"#utility.yul\":6409:6418   */\n      dup2\n        /* \"#utility.yul\":6403:6407   */\n      dup2\n        /* \"#utility.yul\":6399:6419   */\n      sub\n        /* \"#utility.yul\":6394:6396   */\n      0x20\n        /* \"#utility.yul\":6383:6392   */\n      dup4\n        /* \"#utility.yul\":6379:6397   */\n      add\n        /* \"#utility.yul\":6372:6420   */\n      mstore\n        /* \"#utility.yul\":6437:6515   */\n      tag_154\n        /* \"#utility.yul\":6510:6514   */\n      dup2\n        /* \"#utility.yul\":6501:6507   */\n      dup7\n        /* \"#utility.yul\":6437:6515   */\n      tag_62\n      jump\t// in\n    tag_154:\n        /* \"#utility.yul\":6429:6515   */\n      swap1\n      pop\n        /* \"#utility.yul\":6525:6597   */\n      tag_155\n        /* \"#utility.yul\":6593:6595   */\n      0x40\n        /* \"#utility.yul\":6582:6591   */\n      dup4\n        /* \"#utility.yul\":6578:6596   */\n      add\n        /* \"#utility.yul\":6569:6575   */\n      dup6\n        /* \"#utility.yul\":6525:6597   */\n      tag_38\n      jump\t// in\n    tag_155:\n        /* \"#utility.yul\":6644:6653   */\n      dup2\n        /* \"#utility.yul\":6638:6642   */\n      dup2\n        /* \"#utility.yul\":6634:6654   */\n      sub\n        /* \"#utility.yul\":6629:6631   */\n      0x60\n        /* \"#utility.yul\":6618:6627   */\n      dup4\n        /* \"#utility.yul\":6614:6632   */\n      add\n        /* \"#utility.yul\":6607:6655   */\n      mstore\n        /* \"#utility.yul\":6672:6750   */\n      tag_156\n        /* \"#utility.yul\":6745:6749   */\n      dup2\n        /* \"#utility.yul\":6736:6742   */\n      dup5\n        /* \"#utility.yul\":6672:6750   */\n      tag_62\n      jump\t// in\n    tag_156:\n        /* \"#utility.yul\":6664:6750   */\n      swap1\n      pop\n        /* \"#utility.yul\":6022:6757   */\n      swap6\n      swap5\n      pop\n      pop\n      pop\n      pop\n      pop\n      jump\t// out\n        /* \"#utility.yul\":6763:6943   */\n    tag_63:\n        /* \"#utility.yul\":6811:6888   */\n      0x4e487b7100000000000000000000000000000000000000000000000000000000\n        /* \"#utility.yul\":6808:6809   */\n      0x00\n        /* \"#utility.yul\":6801:6889   */\n      mstore\n        /* \"#utility.yul\":6908:6912   */\n      0x22\n        /* \"#utility.yul\":6905:6906   */\n      0x04\n        /* \"#utility.yul\":6898:6913   */\n      mstore\n        /* \"#utility.yul\":6932:6936   */\n      0x24\n        /* \"#utility.yul\":6929:6930   */\n      0x00\n        /* \"#utility.yul\":6922:6937   */\n      revert\n        /* \"#utility.yul\":6949:7269   */\n    tag_27:\n        /* \"#utility.yul\":6993:6999   */\n      0x00\n        /* \"#utility.yul\":7030:7031   */\n      0x02\n        /* \"#utility.yul\":7024:7028   */\n      dup3\n        /* \"#utility.yul\":7020:7032   */\n      div\n        /* \"#utility.yul\":7010:7032   */\n      swap1\n      pop\n        /* \"#utility.yul\":7077:7078   */\n      0x01\n        /* \"#utility.yul\":7071:7075   */\n      dup3\n        /* \"#utility.yul\":7067:7079   */\n      and\n        /* \"#utility.yul\":7098:7116   */\n      dup1\n        /* \"#utility.yul\":7088:7169   */\n      tag_159\n      jumpi\n        /* \"#utility.yul\":7154:7158   */\n      0x7f\n        /* \"#utility.yul\":7146:7152   */\n      dup3\n        /* \"#utility.yul\":7142:7159   */\n      and\n        /* \"#utility.yul\":7132:7159   */\n      swap2\n      pop\n        /* \"#utility.yul\":7088:7169   */\n    tag_159:\n        /* \"#utility.yul\":7216:7218   */\n      0x20\n        /* \"#utility.yul\":7208:7214   */\n      dup3\n        /* \"#utility.yul\":7205:7219   */\n      lt\n        /* \"#utility.yul\":7185:7203   */\n      dup2\n        /* \"#utility.yul\":7182:7220   */\n      sub\n        /* \"#utility.yul\":7179:7263   */\n      tag_160\n      jumpi\n        /* \"#utility.yul\":7235:7253   */\n      tag_161\n      tag_63\n      jump\t// in\n    tag_161:\n        /* \"#utility.yul\":7179:7263   */\n    tag_160:\n        /* \"#utility.yul\":7000:7269   */\n      pop\n        /* \"#utility.yul\":6949:7269   */\n      swap2\n      swap1\n      pop\n      jump\t// out\n        /* \"#utility.yul\":7275:7416   */\n    tag_64:\n        /* \"#utility.yul\":7324:7328   */\n      0x00\n        /* \"#utility.yul\":7347:7350   */\n      dup2\n        /* \"#utility.yul\":7339:7350   */\n      swap1\n      pop\n        /* \"#utility.yul\":7370:7373   */\n      dup2\n        /* \"#utility.yul\":7367:7368   */\n      0x00\n        /* \"#utility.yul\":7360:7374   */\n      mstore\n        /* \"#utility.yul\":7404:7408   */\n      0x20\n        /* \"#utility.yul\":7401:7402   */\n      0x00\n        /* \"#utility.yul\":7391:7409   */\n      keccak256\n        /* \"#utility.yul\":7383:7409   */\n      swap1\n      pop\n        /* \"#utility.yul\":7275:7416   */\n      swap2\n      swap1\n      pop\n      jump\t// out\n        /* \"#utility.yul\":7422:7515   */\n    tag_65:\n        /* \"#utility.yul\":7459:7465   */\n      0x00\n        /* \"#utility.yul\":7506:7508   */\n      0x20\n        /* \"#utility.yul\":7501:7503   */\n      0x1f\n        /* \"#utility.yul\":7494:7499   */\n      dup4\n        /* \"#utility.yul\":7490:7504   */\n      add\n        /* \"#utility.yul\":7486:7509   */\n      div\n        /* \"#utility.yul\":7476:7509   */\n      swap1\n      pop\n        /* \"#utility.yul\":7422:7515   */\n      swap2\n      swap1\n      pop\n      jump\t// out\n        /* \"#utility.yul\":7521:7628   */\n    tag_66:\n        /* \"#utility.yul\":7565:7573   */\n      0x00\n        /* \"#utility.yul\":7615:7620   */\n      dup3\n        /* \"#utility.yul\":7609:7613   */\n      dup3\n        /* \"#utility.yul\":7605:7621   */\n      shl\n        /* \"#utility.yul\":7584:7621   */\n      swap1\n      pop\n        /* \"#utility.yul\":7521:7628   */\n      swap3\n      swap2\n      pop\n      pop\n      jump\t// out\n        /* \"#utility.yul\":7634:8027   */\n    tag_67:\n        /* \"#utility.yul\":7703:7709   */\n      0x00\n        /* \"#utility.yul\":7753:7754   */\n      0x08\n        /* \"#utility.yul\":7741:7751   */\n      dup4\n        /* \"#utility.yul\":7737:7755   */\n      mul\n        /* \"#utility.yul\":7776:7873   */\n      tag_166\n        /* \"#utility.yul\":7806:7872   */\n      0xffffffffffffffffffffffffffffffffffffffffffffffffffffffffffffffff\n        /* \"#utility.yul\":7795:7804   */\n      dup3\n        /* \"#utility.yul\":7776:7873   */\n      tag_66\n      jump\t// in\n    tag_166:\n        /* \"#utility.yul\":7894:7933   */\n      tag_167\n        /* \"#utility.yul\":7924:7932   */\n      dup7\n        /* \"#utility.yul\":7913:7922   */\n      dup4\n        /* \"#utility.yul\":7894:7933   */\n      tag_66\n      jump\t// in\n    tag_167:\n        /* \"#utility.yul\":7882:7933   */\n      swap6\n      pop\n        /* \"#utility.yul\":7966:7970   */\n      dup1\n        /* \"#utility.yul\":7962:7971   */\n      not\n        /* \"#utility.yul\":7955:7960   */\n      dup5\n        /* \"#utility.yul\":7951:7972   */\n      and\n        /* \"#utility.yul\":7942:7972   */\n      swap4\n      pop\n        /* \"#utility.yul\":8015:8019   */\n      dup1\n        /* \"#utility.yul\":8005:8013   */\n      dup7\n        /* \"#utility.yul\":8001:8020   */\n      and\n        /* \"#utility.yul\":7994:7999   */\n      dup5\n        /* \"#utility.yul\":7991:8021   */\n      or\n        /* \"#utility.yul\":7981:8021   */\n      swap3\n      pop\n        /* \"#utility.yul\":7710:8027   */\n      pop\n      pop\n        /* \"#utility.yul\":7634:8027   */\n      swap4\n      swap3\n      pop\n      pop\n      pop\n      jump\t// out\n        /* \"#utility.yul\":8033:8093   */\n    tag_68:\n        /* \"#utility.yul\":8061:8064   */\n      0x00\n        /* \"#utility.yul\":8082:8087   */\n      dup2\n        /* \"#utility.yul\":8075:8087   */\n      swap1\n      pop\n        /* \"#utility.yul\":8033:8093   */\n      swap2\n      swap1\n      pop\n      jump\t// out\n        /* \"#utility.yul\":8099:8241   */\n    tag_69:\n        /* \"#utility.yul\":8149:8158   */\n      0x00\n        /* \"#utility.yul\":8182:8235   */\n      tag_170\n        /* \"#utility.yul\":8200:8234   */\n      tag_171\n        /* \"#utility.yul\":8209:8233   */\n      tag_172\n        /* \"#utility.yul\":8227:8232   */\n      dup5\n        /* \"#utility.yul\":8209:8233   */\n      tag_37\n      jump\t// in\n    tag_172:\n        /* \"#utility.yul\":8200:8234   */\n      tag_68\n      jump\t// in\n    tag_171:\n        /* \"#utility.yul\":8182:8235   */\n      tag_37\n      jump\t// in\n    tag_170:\n        /* \"#utility.yul\":8169:8235   */\n      swap1\n      pop\n        /* \"#utility.yul\":8099:8241   */\n      swap2\n      swap1\n      pop\n      jump\t// out\n        /* \"#utility.yul\":8247:8322   */\n    tag_70:\n        /* \"#utility.yul\":8290:8293   */\n      0x00\n        /* \"#utility.yul\":8311:8316   */\n      dup2\n        /* \"#utility.yul\":8304:8316   */\n      swap1\n      pop\n        /* \"#utility.yul\":8247:8322   */\n      swap2\n      swap1\n      pop\n      jump\t// out\n        /* \"#utility.yul\":8328:8597   */\n    tag_71:\n        /* \"#utility.yul\":8438:8477   */\n      tag_175\n        /* \"#utility.yul\":8469:8476   */\n      dup4\n        /* \"#utility.yul\":8438:8477   */\n      tag_69\n      jump\t// in\n    tag_175:\n        /* \"#utility.yul\":8499:8590   */\n      tag_176\n        /* \"#utility.yul\":8548:8589   */\n      tag_177\n        /* \"#utility.yul\":8572:8588   */\n      dup3\n        /* \"#utility.yul\":8548:8589   */\n      tag_70\n      jump\t// in\n    tag_177:\n        /* \"#utility.yul\":8540:8546   */\n      dup5\n        /* \"#utility.yul\":8533:8537   */\n      dup5\n        /* \"#utility.yul\":8527:8538   */\n      sload\n        /* \"#utility.yul\":8499:8590   */\n      tag_67\n      jump\t// in\n    tag_176:\n        /* \"#utility.yul\":8493:8497   */\n      dup3\n        /* \"#utility.yul\":8486:8591   */\n      sstore\n        /* \"#utility.yul\":8404:8597   */\n      pop\n        /* \"#utility.yul\":8328:8597   */\n      pop\n      pop\n      pop\n      jump\t// out\n        /* \"#utility.yul\":8603:8676   */\n    tag_72:\n        /* \"#utility.yul\":8648:8651   */\n      0x00\n        /* \"#utility.yul\":8603:8676   */\n      swap1\n      jump\t// out\n        /* \"#utility.yul\":8682:8871   */\n    tag_73:\n        /* \"#utility.yul\":8759:8791   */\n      tag_180\n      tag_72\n      jump\t// in\n    tag_180:\n        /* \"#utility.yul\":8800:8865   */\n      tag_181\n        /* \"#utility.yul\":8858:8864   */\n      dup2\n        /* \"#utility.yul\":8850:8856   */\n      dup5\n        /* \"#utility.yul\":8844:8848   */\n      dup5\n        /* \"#utility.yul\":8800:8865   */\n      tag_71\n      jump\t// in\n    tag_181:\n        /* \"#utility.yul\":8735:8871   */\n      pop\n        /* \"#utility.yul\":8682:8871   */\n      pop\n      pop\n      jump\t// out\n        /* \"#utility.yul\":8877:9063   */\n    tag_74:\n        /* \"#utility.yul\":8937:9057   */\n    tag_183:\n        /* \"#utility.yul\":8954:8957   */\n      dup2\n        /* \"#utility.yul\":8947:8952   */\n      dup2\n        /* \"#utility.yul\":8944:8958   */\n      lt\n        /* \"#utility.yul\":8937:9057   */\n      iszero\n      tag_185\n      jumpi\n        /* \"#utility.yul\":9008:9047   */\n      tag_186\n        /* \"#utility.yul\":9045:9046   */\n      0x00\n        /* \"#utility.yul\":9038:9043   */\n      dup3\n        /* \"#utility.yul\":9008:9047   */\n      tag_73\n      jump\t// in\n    tag_186:\n        /* \"#utility.yul\":8981:8982   */\n      0x01\n        /* \"#utility.yul\":8974:8979   */\n      dup2\n        /* \"#utility.yul\":8970:8983   */\n      add\n        /* \"#utility.yul\":8961:8983   */\n      swap1\n      pop\n        /* \"#utility.yul\":8937:9057   */\n      jump(tag_183)\n    tag_185:\n        /* \"#utility.yul\":8877:9063   */\n      pop\n      pop\n      jump\t// out\n        /* \"#utility.yul\":9069:9612   */\n    tag_75:\n        /* \"#utility.yul\":9170:9172   */\n      0x1f\n        /* \"#utility.yul\":9165:9168   */\n      dup3\n        /* \"#utility.yul\":9162:9173   */\n      gt\n        /* \"#utility.yul\":9159:9605   */\n      iszero\n      tag_188\n      jumpi\n        /* \"#utility.yul\":9204:9242   */\n      tag_189\n        /* \"#utility.yul\":9236:9241   */\n      dup2\n        /* \"#utility.yul\":9204:9242   */\n      tag_64\n      jump\t// in\n    tag_189:\n        /* \"#utility.yul\":9288:9317   */\n      tag_190\n        /* \"#utility.yul\":9306:9316   */\n      dup5\n        /* \"#utility.yul\":9288:9317   */\n      tag_65\n      jump\t// in\n    tag_190:\n        /* \"#utility.yul\":9278:9286   */\n      dup2\n        /* \"#utility.yul\":9274:9318   */\n      add\n        /* \"#utility.yul\":9471:9473   */\n      0x20\n        /* \"#utility.yul\":9459:9469   */\n      dup6\n        /* \"#utility.yul\":9456:9474   */\n      lt\n        /* \"#utility.yul\":9453:9502   */\n      iszero\n      tag_191\n      jumpi\n        /* \"#utility.yul\":9492:9500   */\n      dup2\n        /* \"#utility.yul\":9477:9500   */\n      swap1\n      pop\n        /* \"#utility.yul\":9453:9502   */\n    tag_191:\n        /* \"#utility.yul\":9515:9595   */\n      tag_192\n        /* \"#utility.yul\":9571:9593   */\n      tag_193\n        /* \"#utility.yul\":9589:9592   */\n      dup6\n        /* \"#utility.yul\":9571:9593   */\n      tag_65\n      jump\t// in\n    tag_193:\n        /* \"#utility.yul\":9561:9569   */\n      dup4\n        /* \"#utility.yul\":9557:9594   */\n      add\n        /* \"#utility.yul\":9544:9555   */\n      dup3\n        /* \"#utility.yul\":9515:9595   */\n      tag_74\n      jump\t// in\n    tag_192:\n        /* \"#utility.yul\":9174:9605   */\n      pop\n      pop\n        /* \"#utility.yul\":9159:9605   */\n    tag_188:\n        /* \"#utility.yul\":9069:9612   */\n      pop\n      pop\n      pop\n      jump\t// out\n        /* \"#utility.yul\":9618:9735   */\n    tag_76:\n        /* \"#utility.yul\":9672:9680   */\n      0x00\n        /* \"#utility.yul\":9722:9727   */\n      dup3\n        /* \"#utility.yul\":9716:9720   */\n      dup3\n        /* \"#utility.yul\":9712:9728   */\n      shr\n        /* \"#utility.yul\":9691:9728   */\n      swap1\n      pop\n        /* \"#utility.yul\":9618:9735   */\n      swap3\n      swap2\n      pop\n      pop\n      jump\t// out\n        /* \"#utility.yul\":9741:9910   */\n    tag_77:\n        /* \"#utility.yul\":9785:9791   */\n      0x00\n        /* \"#utility.yul\":9818:9869   */\n      tag_196\n        /* \"#utility.yul\":9866:9867   */\n      0x00\n        /* \"#utility.yul\":9862:9868   */\n      not\n        /* \"#utility.yul\":9854:9859   */\n      dup5\n        /* \"#utility.yul\":9851:9852   */\n      0x08\n        /* \"#utility.yul\":9847:9860   */\n      mul\n        /* \"#utility.yul\":9818:9869   */\n      tag_76\n      jump\t// in\n    tag_196:\n        /* \"#utility.yul\":9814:9870   */\n      not\n        /* \"#utility.yul\":9899:9903   */\n      dup1\n        /* \"#utility.yul\":9893:9897   */\n      dup4\n        /* \"#utility.yul\":9889:9904   */\n      and\n        /* \"#utility.yul\":9879:9904   */\n      swap2\n      pop\n        /* \"#utility.yul\":9792:9910   */\n      pop\n        /* \"#utility.yul\":9741:9910   */\n      swap3\n      swap2\n      pop\n      pop\n      jump\t// out\n        /* \"#utility.yul\":9915:10210   */\n    tag_78:\n        /* \"#utility.yul\":9991:9995   */\n      0x00\n        /* \"#utility.yul\":10137:10166   */\n      tag_198\n        /* \"#utility.yul\":10162:10165   */\n      dup4\n        /* \"#utility.yul\":10156:10160   */\n      dup4\n        /* \"#utility.yul\":10137:10166   */\n      tag_77\n      jump\t// in\n    tag_198:\n        /* \"#utility.yul\":10129:10166   */\n      swap2\n      pop\n        /* \"#utility.yul\":10199:10202   */\n      dup3\n        /* \"#utility.yul\":10196:10197   */\n      0x02\n        /* \"#utility.yul\":10192:10203   */\n      mul\n        /* \"#utility.yul\":10186:10190   */\n      dup3\n        /* \"#utility.yul\":10183:10204   */\n      or\n        /* \"#utility.yul\":10175:10204   */\n      swap1\n      pop\n        /* \"#utility.yul\":9915:10210   */\n      swap3\n      swap2\n      pop\n      pop\n      jump\t// out\n        /* \"#utility.yul\":10215:11610   */\n    tag_22:\n        /* \"#utility.yul\":10332:10369   */\n      tag_200\n        /* \"#utility.yul\":10365:10368   */\n      dup3\n        /* \"#utility.yul\":10332:10369   */\n      tag_59\n      jump\t// in\n    tag_200:\n        /* \"#utility.yul\":10434:10452   */\n      0xffffffffffffffff\n        /* \"#utility.yul\":10426:10432   */\n      dup2\n        /* \"#utility.yul\":10423:10453   */\n      gt\n        /* \"#utility.yul\":10420:10476   */\n      iszero\n      tag_201\n      jumpi\n        /* \"#utility.yul\":10456:10474   */\n      tag_202\n      tag_45\n      jump\t// in\n    tag_202:\n        /* \"#utility.yul\":10420:10476   */\n    tag_201:\n        /* \"#utility.yul\":10500:10538   */\n      tag_203\n        /* \"#utility.yul\":10532:10536   */\n      dup3\n        /* \"#utility.yul\":10526:10537   */\n      sload\n        /* \"#utility.yul\":10500:10538   */\n      tag_27\n      jump\t// in\n    tag_203:\n        /* \"#utility.yul\":10585:10652   */\n      tag_204\n        /* \"#utility.yul\":10645:10651   */\n      dup3\n        /* \"#utility.yul\":10637:10643   */\n      dup3\n        /* \"#utility.yul\":10631:10635   */\n      dup6\n        /* \"#utility.yul\":10585:10652   */\n      tag_75\n      jump\t// in\n    tag_204:\n        /* \"#utility.yul\":10679:10680   */\n      0x00\n        /* \"#utility.yul\":10703:10707   */\n      0x20\n        /* \"#utility.yul\":10690:10707   */\n      swap1\n      pop\n        /* \"#utility.yul\":10735:10737   */\n      0x1f\n        /* \"#utility.yul\":10727:10733   */\n      dup4\n        /* \"#utility.yul\":10724:10738   */\n      gt\n        /* \"#utility.yul\":10752:10753   */\n      0x01\n        /* \"#utility.yul\":10747:11365   */\n      dup2\n      eq\n      tag_206\n      jumpi\n        /* \"#utility.yul\":11409:11410   */\n      0x00\n        /* \"#utility.yul\":11426:11432   */\n      dup5\n        /* \"#utility.yul\":11423:11500   */\n      iszero\n      tag_207\n      jumpi\n        /* \"#utility.yul\":11475:11484   */\n      dup3\n        /* \"#utility.yul\":11470:11473   */\n      dup8\n        /* \"#utility.yul\":11466:11485   */\n      add\n        /* \"#utility.yul\":11460:11486   */\n      mload\n        /* \"#utility.yul\":11451:11486   */\n      swap1\n      pop\n        /* \"#utility.yul\":11423:11500   */\n    tag_207:\n        /* \"#utility.yul\":11526:11593   */\n      tag_208\n        /* \"#utility.yul\":11586:11592   */\n      dup6\n        /* \"#utility.yul\":11579:11584   */\n      dup3\n        /* \"#utility.yul\":11526:11593   */\n      tag_78\n      jump\t// in\n    tag_208:\n        /* \"#utility.yul\":11520:11524   */\n      dup7\n        /* \"#utility.yul\":11513:11594   */\n      sstore\n        /* \"#utility.yul\":11382:11604   */\n      pop\n        /* \"#utility.yul\":10717:11604   */\n      jump(tag_205)\n        /* \"#utility.yul\":10747:11365   */\n    tag_206:\n        /* \"#utility.yul\":10799:10803   */\n      0x1f\n        /* \"#utility.yul\":10795:10804   */\n      not\n        /* \"#utility.yul\":10787:10793   */\n      dup5\n        /* \"#utility.yul\":10783:10805   */\n      and\n        /* \"#utility.yul\":10833:10870   */\n      tag_209\n        /* \"#utility.yul\":10865:10869   */\n      dup7\n        /* \"#utility.yul\":10833:10870   */\n      tag_64\n      jump\t// in\n    tag_209:\n        /* \"#utility.yul\":10892:10893   */\n      0x00\n        /* \"#utility.yul\":10906:11114   */\n    tag_210:\n        /* \"#utility.yul\":10920:10927   */\n      dup3\n        /* \"#utility.yul\":10917:10918   */\n      dup2\n        /* \"#utility.yul\":10914:10928   */\n      lt\n        /* \"#utility.yul\":10906:11114   */\n      iszero\n      tag_212\n      jumpi\n        /* \"#utility.yul\":10999:11008   */\n      dup5\n        /* \"#utility.yul\":10994:10997   */\n      dup10\n        /* \"#utility.yul\":10990:11009   */\n      add\n        /* \"#utility.yul\":10984:11010   */\n      mload\n        /* \"#utility.yul\":10976:10982   */\n      dup3\n        /* \"#utility.yul\":10969:11011   */\n      sstore\n        /* \"#utility.yul\":11050:11051   */\n      0x01\n        /* \"#utility.yul\":11042:11048   */\n      dup3\n        /* \"#utility.yul\":11038:11052   */\n      add\n        /* \"#utility.yul\":11028:11052   */\n      swap2\n      pop\n        /* \"#utility.yul\":11097:11099   */\n      0x20\n        /* \"#utility.yul\":11086:11095   */\n      dup6\n        /* \"#utility.yul\":11082:11100   */\n      add\n        /* \"#utility.yul\":11069:11100   */\n      swap5\n      pop\n        /* \"#utility.yul\":10943:10947   */\n      0x20\n        /* \"#utility.yul\":10940:10941   */\n      dup2\n        /* \"#utility.yul\":10936:10948   */\n      add\n        /* \"#utility.yul\":10931:10948   */\n      swap1\n      pop\n        /* \"#utility.yul\":10906:11114   */\n      jump(tag_210)\n    tag_212:\n        /* \"#utility.yul\":11142:11148   */\n      dup7\n        /* \"#utility.yul\":11133:11140   */\n      dup4\n        /* \"#utility.yul\":11130:11149   */\n      lt\n        /* \"#utility.yul\":11127:11306   */\n      iszero\n      tag_213\n      jumpi\n        /* \"#utility.yul\":11200:11209   */\n      dup5\n        /* \"#utility.yul\":11195:11198   */\n      dup10\n        /* \"#utility.yul\":11191:11210   */\n      add\n        /* \"#utility.yul\":11185:11211   */\n      mload\n        /* \"#utility.yul\":11243:11291   */\n      tag_214\n        /* \"#utility.yul\":11285:11289   */\n      0x1f\n        /* \"#utility.yul\":11277:11283   */\n      dup10\n        /* \"#utility.yul\":11273:11290   */\n      and\n        /* \"#utility.yul\":11262:11271   */\n      dup3\n        /* \"#utility.yul\":11243:11291   */\n      tag_77\n      jump\t// in\n    tag_214:\n        /* \"#utility.yul\":11235:11241   */\n      dup4\n        /* \"#utility.yul\":11228:11292   */\n      sstore\n        /* \"#utility.yul\":11150:11306   */\n      pop\n        /* \"#utility.yul\":11127:11306   */\n    tag_213:\n        /* \"#utility.yul\":11352:11353   */\n      0x01\n        /* \"#utility.yul\":11348:11349   */\n      0x02\n        /* \"#utility.yul\":11340:11346   */\n      dup9\n        /* \"#utility.yul\":11336:11350   */\n      mul\n        /* \"#utility.yul\":11332:11354   */\n      add\n        /* \"#utility.yul\":11326:11330   */\n      dup9\n        /* \"#utility.yul\":11319:11355   */\n      sstore\n        /* \"#utility.yul\":10754:11365   */\n      pop\n      pop\n      pop\n        /* \"#utility.yul\":10717:11604   */\n    tag_205:\n      pop\n        /* \"#utility.yul\":10307:11610   */\n      pop\n      pop\n      pop\n        /* \"#utility.yul\":10215:11610   */\n      pop\n      pop\n      jump\t// out\n        /* \"#utility.yul\":11616:11796   */\n    tag_79:\n        /* \"#utility.yul\":11664:11741   */\n      0x4e487b7100000000000000000000000000000000000000000000000000000000\n        /* \"#utility.yul\":11661:11662   */\n      0x00\n        /* \"#utility.yul\":11654:11742   */\n      mstore\n        /* \"#utility.yul\":11761:11765   */\n      0x11\n        /* \"#utility.yul\":11758:11759   */\n      0x04\n        /* \"#utility.yul\":11751:11766   */\n      mstore\n        /* \"#utility.yul\":11785:11789   */\n      0x24\n        /* \"#utility.yul\":11782:11783   */\n      0x00\n        /* \"#utility.yul\":11775:11790   */\n      revert\n        /* \"#utility.yul\":11802:11993   */\n    tag_25:\n        /* \"#utility.yul\":11842:11845   */\n      0x00\n        /* \"#utility.yul\":11861:11881   */\n      tag_217\n        /* \"#utility.yul\":11879:11880   */\n      dup3\n        /* \"#utility.yul\":11861:11881   */\n      tag_37\n      jump\t// in\n    tag_217:\n        /* \"#utility.yul\":11856:11881   */\n      swap2\n      pop\n        /* \"#utility.yul\":11895:11915   */\n      tag_218\n        /* \"#utility.yul\":11913:11914   */\n      dup4\n        /* \"#utility.yul\":11895:11915   */\n      tag_37\n      jump\t// in\n    tag_218:\n        /* \"#utility.yul\":11890:11915   */\n      swap3\n      pop\n        /* \"#utility.yul\":11938:11939   */\n      dup3\n        /* \"#utility.yul\":11935:11936   */\n      dup3\n        /* \"#utility.yul\":11931:11940   */\n      add\n        /* \"#utility.yul\":11924:11940   */\n      swap1\n      pop\n        /* \"#utility.yul\":11959:11962   */\n      dup1\n        /* \"#utility.yul\":11956:11957   */\n      dup3\n        /* \"#utility.yul\":11953:11963   */\n      gt\n        /* \"#utility.yul\":11950:11986   */\n      iszero\n      tag_219\n      jumpi\n        /* \"#utility.yul\":11966:11984   */\n      tag_220\n      tag_79\n      jump\t// in\n    tag_220:\n        /* \"#utility.yul\":11950:11986   */\n    tag_219:\n        /* \"#utility.yul\":11802:11993   */\n      swap3\n      swap2\n      pop\n      pop\n      jump\t// out\n\n    auxdata: 0xa26469706673582212201d1a4558d3b7a6c46eef465729831dbcd5c4af4d887e66d2757f71ad26f24cd264736f6c634300081a0033\n}\n",
				"bytecode": {
					"linkReferences": {},
					"object": "60806040525f80553480156011575f80fd5b506109ee8061001f5f395ff3fe608060405234801561000f575f80fd5b506004361061003f575f3560e01c8063aaa006b214610043578063aab48c5214610061578063e2eb41ff1461007d575b5f80fd5b61004b6100b0565b6040516100589190610332565b60405180910390f35b61007b600480360381019061007691906104c2565b6100b5565b005b610097600480360381019061009291906105a4565b6101c3565b6040516100a7949392919061063e565b60405180910390f35b5f5481565b60405180608001604052803373ffffffffffffffffffffffffffffffffffffffff1681526020018481526020018381526020018281525060015f3373ffffffffffffffffffffffffffffffffffffffff1673ffffffffffffffffffffffffffffffffffffffff1681526020019081526020015f205f820151815f015f6101000a81548173ffffffffffffffffffffffffffffffffffffffff021916908373ffffffffffffffffffffffffffffffffffffffff16021790555060208201518160010190816101829190610889565b506040820151816002015560608201518160030190816101a29190610889565b5090505060015f808282546101b79190610985565b92505081905550505050565b6001602052805f5260405f205f91509050805f015f9054906101000a900473ffffffffffffffffffffffffffffffffffffffff1690806001018054610207906106bc565b80601f0160208091040260200160405190810160405280929190818152602001828054610233906106bc565b801561027e5780601f106102555761010080835404028352916020019161027e565b820191905f5260205f20905b81548152906001019060200180831161026157829003601f168201915b505050505090806002015490806003018054610299906106bc565b80601f01602080910402602001604051908101604052809291908181526020018280546102c5906106bc565b80156103105780601f106102e757610100808354040283529160200191610310565b820191905f5260205f20905b8154815290600101906020018083116102f357829003601f168201915b5050505050905084565b5f819050919050565b61032c8161031a565b82525050565b5f6020820190506103455f830184610323565b92915050565b5f604051905090565b5f80fd5b5f80fd5b5f80fd5b5f80fd5b5f601f19601f8301169050919050565b7f4e487b71000000000000000000000000000000000000000000000000000000005f52604160045260245ffd5b6103aa82610364565b810181811067ffffffffffffffff821117156103c9576103c8610374565b5b80604052505050565b5f6103db61034b565b90506103e782826103a1565b919050565b5f67ffffffffffffffff82111561040657610405610374565b5b61040f82610364565b9050602081019050919050565b828183375f83830152505050565b5f61043c610437846103ec565b6103d2565b90508281526020810184848401111561045857610457610360565b5b61046384828561041c565b509392505050565b5f82601f83011261047f5761047e61035c565b5b813561048f84826020860161042a565b91505092915050565b6104a18161031a565b81146104ab575f80fd5b50565b5f813590506104bc81610498565b92915050565b5f805f606084860312156104d9576104d8610354565b5b5f84013567ffffffffffffffff8111156104f6576104f5610358565b5b6105028682870161046b565b9350506020610513868287016104ae565b925050604084013567ffffffffffffffff81111561053457610533610358565b5b6105408682870161046b565b9150509250925092565b5f73ffffffffffffffffffffffffffffffffffffffff82169050919050565b5f6105738261054a565b9050919050565b61058381610569565b811461058d575f80fd5b50565b5f8135905061059e8161057a565b92915050565b5f602082840312156105b9576105b8610354565b5b5f6105c684828501610590565b91505092915050565b6105d881610569565b82525050565b5f81519050919050565b5f82825260208201905092915050565b8281835e5f83830152505050565b5f610610826105de565b61061a81856105e8565b935061062a8185602086016105f8565b61063381610364565b840191505092915050565b5f6080820190506106515f8301876105cf565b81810360208301526106638186610606565b90506106726040830185610323565b81810360608301526106848184610606565b905095945050505050565b7f4e487b71000000000000000000000000000000000000000000000000000000005f52602260045260245ffd5b5f60028204905060018216806106d357607f821691505b6020821081036106e6576106e561068f565b5b50919050565b5f819050815f5260205f209050919050565b5f6020601f8301049050919050565b5f82821b905092915050565b5f600883026107487fffffffffffffffffffffffffffffffffffffffffffffffffffffffffffffffff8261070d565b610752868361070d565b95508019841693508086168417925050509392505050565b5f819050919050565b5f61078d6107886107838461031a565b61076a565b61031a565b9050919050565b5f819050919050565b6107a683610773565b6107ba6107b282610794565b848454610719565b825550505050565b5f90565b6107ce6107c2565b6107d981848461079d565b505050565b5b818110156107fc576107f15f826107c6565b6001810190506107df565b5050565b601f82111561084157610812816106ec565b61081b846106fe565b8101602085101561082a578190505b61083e610836856106fe565b8301826107de565b50505b505050565b5f82821c905092915050565b5f6108615f1984600802610846565b1980831691505092915050565b5f6108798383610852565b9150826002028217905092915050565b610892826105de565b67ffffffffffffffff8111156108ab576108aa610374565b5b6108b582546106bc565b6108c0828285610800565b5f60209050601f8311600181146108f1575f84156108df578287015190505b6108e9858261086e565b865550610950565b601f1984166108ff866106ec565b5f5b8281101561092657848901518255600182019150602085019450602081019050610901565b86831015610943578489015161093f601f891682610852565b8355505b6001600288020188555050505b505050505050565b7f4e487b71000000000000000000000000000000000000000000000000000000005f52601160045260245ffd5b5f61098f8261031a565b915061099a8361031a565b92508282019050808211156109b2576109b1610958565b5b9291505056fea26469706673582212201d1a4558d3b7a6c46eef465729831dbcd5c4af4d887e66d2757f71ad26f24cd264736f6c634300081a0033",
					"opcodes": "PUSH1 0x80 PUSH1 0x40 MSTORE PUSH0 DUP1 SSTORE CALLVALUE DUP1 ISZERO PUSH1 0x11 JUMPI PUSH0 DUP1 REVERT JUMPDEST POP PUSH2 0x9EE DUP1 PUSH2 0x1F PUSH0 CODECOPY PUSH0 RETURN INVALID PUSH1 0x80 PUSH1 0x40 MSTORE CALLVALUE DUP1 ISZERO PUSH2 0xF JUMPI PUSH0 DUP1 REVERT JUMPDEST POP PUSH1 0x4 CALLDATASIZE LT PUSH2 0x3F JUMPI PUSH0 CALLDATALOAD PUSH1 0xE0 SHR DUP1 PUSH4 0xAAA006B2 EQ PUSH2 0x43 JUMPI DUP1 PUSH4 0xAAB48C52 EQ PUSH2 0x61 JUMPI DUP1 PUSH4 0xE2EB41FF EQ PUSH2 0x7D JUMPI JUMPDEST PUSH0 DUP1 REVERT JUMPDEST PUSH2 0x4B PUSH2 0xB0 JUMP JUMPDEST PUSH1 0x40 MLOAD PUSH2 0x58 SWAP2 SWAP1 PUSH2 0x332 JUMP JUMPDEST PUSH1 0x40 MLOAD DUP1 SWAP2 SUB SWAP1 RETURN JUMPDEST PUSH2 0x7B PUSH1 0x4 DUP1 CALLDATASIZE SUB DUP2 ADD SWAP1 PUSH2 0x76 SWAP2 SWAP1 PUSH2 0x4C2 JUMP JUMPDEST PUSH2 0xB5 JUMP JUMPDEST STOP JUMPDEST PUSH2 0x97 PUSH1 0x4 DUP1 CALLDATASIZE SUB DUP2 ADD SWAP1 PUSH2 0x92 SWAP2 SWAP1 PUSH2 0x5A4 JUMP JUMPDEST PUSH2 0x1C3 JUMP JUMPDEST PUSH1 0x40 MLOAD PUSH2 0xA7 SWAP5 SWAP4 SWAP3 SWAP2 SWAP1 PUSH2 0x63E JUMP JUMPDEST PUSH1 0x40 MLOAD DUP1 SWAP2 SUB SWAP1 RETURN JUMPDEST PUSH0 SLOAD DUP2 JUMP JUMPDEST PUSH1 0x40 MLOAD DUP1 PUSH1 0x80 ADD PUSH1 0x40 MSTORE DUP1 CALLER PUSH20 0xFFFFFFFFFFFFFFFFFFFFFFFFFFFFFFFFFFFFFFFF AND DUP2 MSTORE PUSH1 0x20 ADD DUP5 DUP2 MSTORE PUSH1 0x20 ADD DUP4 DUP2 MSTORE PUSH1 0x20 ADD DUP3 DUP2 MSTORE POP PUSH1 0x1 PUSH0 CALLER PUSH20 0xFFFFFFFFFFFFFFFFFFFFFFFFFFFFFFFFFFFFFFFF AND PUSH20 0xFFFFFFFFFFFFFFFFFFFFFFFFFFFFFFFFFFFFFFFF AND DUP2 MSTORE PUSH1 0x20 ADD SWAP1 DUP2 MSTORE PUSH1 0x20 ADD PUSH0 KECCAK256 PUSH0 DUP3 ADD MLOAD DUP2 PUSH0 ADD PUSH0 PUSH2 0x100 EXP DUP2 SLOAD DUP2 PUSH20 0xFFFFFFFFFFFFFFFFFFFFFFFFFFFFFFFFFFFFFFFF MUL NOT AND SWAP1 DUP4 PUSH20 0xFFFFFFFFFFFFFFFFFFFFFFFFFFFFFFFFFFFFFFFF AND MUL OR SWAP1 SSTORE POP PUSH1 0x20 DUP3 ADD MLOAD DUP2 PUSH1 0x1 ADD SWAP1 DUP2 PUSH2 0x182 SWAP2 SWAP1 PUSH2 0x889 JUMP JUMPDEST POP PUSH1 0x40 DUP3 ADD MLOAD DUP2 PUSH1 0x2 ADD SSTORE PUSH1 0x60 DUP3 ADD MLOAD DUP2 PUSH1 0x3 ADD SWAP1 DUP2 PUSH2 0x1A2 SWAP2 SWAP1 PUSH2 0x889 JUMP JUMPDEST POP SWAP1 POP POP PUSH1 0x1 PUSH0 DUP1 DUP3 DUP3 SLOAD PUSH2 0x1B7 SWAP2 SWAP1 PUSH2 0x985 JUMP JUMPDEST SWAP3 POP POP DUP2 SWAP1 SSTORE POP POP POP POP JUMP JUMPDEST PUSH1 0x1 PUSH1 0x20 MSTORE DUP1 PUSH0 MSTORE PUSH1 0x40 PUSH0 KECCAK256 PUSH0 SWAP2 POP SWAP1 POP DUP1 PUSH0 ADD PUSH0 SWAP1 SLOAD SWAP1 PUSH2 0x100 EXP SWAP1 DIV PUSH20 0xFFFFFFFFFFFFFFFFFFFFFFFFFFFFFFFFFFFFFFFF AND SWAP1 DUP1 PUSH1 0x1 ADD DUP1 SLOAD PUSH2 0x207 SWAP1 PUSH2 0x6BC JUMP JUMPDEST DUP1 PUSH1 0x1F ADD PUSH1 0x20 DUP1 SWAP2 DIV MUL PUSH1 0x20 ADD PUSH1 0x40 MLOAD SWAP1 DUP2 ADD PUSH1 0x40 MSTORE DUP1 SWAP3 SWAP2 SWAP1 DUP2 DUP2 MSTORE PUSH1 0x20 ADD DUP3 DUP1 SLOAD PUSH2 0x233 SWAP1 PUSH2 0x6BC JUMP JUMPDEST DUP1 ISZERO PUSH2 0x27E JUMPI DUP1 PUSH1 0x1F LT PUSH2 0x255 JUMPI PUSH2 0x100 DUP1 DUP4 SLOAD DIV MUL DUP4 MSTORE SWAP2 PUSH1 0x20 ADD SWAP2 PUSH2 0x27E JUMP JUMPDEST DUP3 ADD SWAP2 SWAP1 PUSH0 MSTORE PUSH1 0x20 PUSH0 KECCAK256 SWAP1 JUMPDEST DUP2 SLOAD DUP2 MSTORE SWAP1 PUSH1 0x1 ADD SWAP1 PUSH1 0x20 ADD DUP1 DUP4 GT PUSH2 0x261 JUMPI DUP3 SWAP1 SUB PUSH1 0x1F AND DUP3 ADD SWAP2 JUMPDEST POP POP POP POP POP SWAP1 DUP1 PUSH1 0x2 ADD SLOAD SWAP1 DUP1 PUSH1 0x3 ADD DUP1 SLOAD PUSH2 0x299 SWAP1 PUSH2 0x6BC JUMP JUMPDEST DUP1 PUSH1 0x1F ADD PUSH1 0x20 DUP1 SWAP2 DIV MUL PUSH1 0x20 ADD PUSH1 0x40 MLOAD SWAP1 DUP2 ADD PUSH1 0x40 MSTORE DUP1 SWAP3 SWAP2 SWAP1 DUP2 DUP2 MSTORE PUSH1 0x20 ADD DUP3 DUP1 SLOAD PUSH2 0x2C5 SWAP1 PUSH2 0x6BC JUMP JUMPDEST DUP1 ISZERO PUSH2 0x310 JUMPI DUP1 PUSH1 0x1F LT PUSH2 0x2E7 JUMPI PUSH2 0x100 DUP1 DUP4 SLOAD DIV MUL DUP4 MSTORE SWAP2 PUSH1 0x20 ADD SWAP2 PUSH2 0x310 JUMP JUMPDEST DUP3 ADD SWAP2 SWAP1 PUSH0 MSTORE PUSH1 0x20 PUSH0 KECCAK256 SWAP1 JUMPDEST DUP2 SLOAD DUP2 MSTORE SWAP1 PUSH1 0x1 ADD SWAP1 PUSH1 0x20 ADD DUP1 DUP4 GT PUSH2 0x2F3 JUMPI DUP3 SWAP1 SUB PUSH1 0x1F AND DUP3 ADD SWAP2 JUMPDEST POP POP POP POP POP SWAP1 POP DUP5 JUMP JUMPDEST PUSH0 DUP2 SWAP1 POP SWAP2 SWAP1 POP JUMP JUMPDEST PUSH2 0x32C DUP2 PUSH2 0x31A JUMP JUMPDEST DUP3 MSTORE POP POP JUMP JUMPDEST PUSH0 PUSH1 0x20 DUP3 ADD SWAP1 POP PUSH2 0x345 PUSH0 DUP4 ADD DUP5 PUSH2 0x323 JUMP JUMPDEST SWAP3 SWAP2 POP POP JUMP JUMPDEST PUSH0 PUSH1 0x40 MLOAD SWAP1 POP SWAP1 JUMP JUMPDEST PUSH0 DUP1 REVERT JUMPDEST PUSH0 DUP1 REVERT JUMPDEST PUSH0 DUP1 REVERT JUMPDEST PUSH0 DUP1 REVERT JUMPDEST PUSH0 PUSH1 0x1F NOT PUSH1 0x1F DUP4 ADD AND SWAP1 POP SWAP2 SWAP1 POP JUMP JUMPDEST PUSH32 0x4E487B7100000000000000000000000000000000000000000000000000000000 PUSH0 MSTORE PUSH1 0x41 PUSH1 0x4 MSTORE PUSH1 0x24 PUSH0 REVERT JUMPDEST PUSH2 0x3AA DUP3 PUSH2 0x364 JUMP JUMPDEST DUP2 ADD DUP2 DUP2 LT PUSH8 0xFFFFFFFFFFFFFFFF DUP3 GT OR ISZERO PUSH2 0x3C9 JUMPI PUSH2 0x3C8 PUSH2 0x374 JUMP JUMPDEST JUMPDEST DUP1 PUSH1 0x40 MSTORE POP POP POP JUMP JUMPDEST PUSH0 PUSH2 0x3DB PUSH2 0x34B JUMP JUMPDEST SWAP1 POP PUSH2 0x3E7 DUP3 DUP3 PUSH2 0x3A1 JUMP JUMPDEST SWAP2 SWAP1 POP JUMP JUMPDEST PUSH0 PUSH8 0xFFFFFFFFFFFFFFFF DUP3 GT ISZERO PUSH2 0x406 JUMPI PUSH2 0x405 PUSH2 0x374 JUMP JUMPDEST JUMPDEST PUSH2 0x40F DUP3 PUSH2 0x364 JUMP JUMPDEST SWAP1 POP PUSH1 0x20 DUP2 ADD SWAP1 POP SWAP2 SWAP1 POP JUMP JUMPDEST DUP3 DUP2 DUP4 CALLDATACOPY PUSH0 DUP4 DUP4 ADD MSTORE POP POP POP JUMP JUMPDEST PUSH0 PUSH2 0x43C PUSH2 0x437 DUP5 PUSH2 0x3EC JUMP JUMPDEST PUSH2 0x3D2 JUMP JUMPDEST SWAP1 POP DUP3 DUP2 MSTORE PUSH1 0x20 DUP2 ADD DUP5 DUP5 DUP5 ADD GT ISZERO PUSH2 0x458 JUMPI PUSH2 0x457 PUSH2 0x360 JUMP JUMPDEST JUMPDEST PUSH2 0x463 DUP5 DUP3 DUP6 PUSH2 0x41C JUMP JUMPDEST POP SWAP4 SWAP3 POP POP POP JUMP JUMPDEST PUSH0 DUP3 PUSH1 0x1F DUP4 ADD SLT PUSH2 0x47F JUMPI PUSH2 0x47E PUSH2 0x35C JUMP JUMPDEST JUMPDEST DUP2 CALLDATALOAD PUSH2 0x48F DUP5 DUP3 PUSH1 0x20 DUP7 ADD PUSH2 0x42A JUMP JUMPDEST SWAP2 POP POP SWAP3 SWAP2 POP POP JUMP JUMPDEST PUSH2 0x4A1 DUP2 PUSH2 0x31A JUMP JUMPDEST DUP2 EQ PUSH2 0x4AB JUMPI PUSH0 DUP1 REVERT JUMPDEST POP JUMP JUMPDEST PUSH0 DUP2 CALLDATALOAD SWAP1 POP PUSH2 0x4BC DUP2 PUSH2 0x498 JUMP JUMPDEST SWAP3 SWAP2 POP POP JUMP JUMPDEST PUSH0 DUP1 PUSH0 PUSH1 0x60 DUP5 DUP7 SUB SLT ISZERO PUSH2 0x4D9 JUMPI PUSH2 0x4D8 PUSH2 0x354 JUMP JUMPDEST JUMPDEST PUSH0 DUP5 ADD CALLDATALOAD PUSH8 0xFFFFFFFFFFFFFFFF DUP2 GT ISZERO PUSH2 0x4F6 JUMPI PUSH2 0x4F5 PUSH2 0x358 JUMP JUMPDEST JUMPDEST PUSH2 0x502 DUP7 DUP3 DUP8 ADD PUSH2 0x46B JUMP JUMPDEST SWAP4 POP POP PUSH1 0x20 PUSH2 0x513 DUP7 DUP3 DUP8 ADD PUSH2 0x4AE JUMP JUMPDEST SWAP3 POP POP PUSH1 0x40 DUP5 ADD CALLDATALOAD PUSH8 0xFFFFFFFFFFFFFFFF DUP2 GT ISZERO PUSH2 0x534 JUMPI PUSH2 0x533 PUSH2 0x358 JUMP JUMPDEST JUMPDEST PUSH2 0x540 DUP7 DUP3 DUP8 ADD PUSH2 0x46B JUMP JUMPDEST SWAP2 POP POP SWAP3 POP SWAP3 POP SWAP3 JUMP JUMPDEST PUSH0 PUSH20 0xFFFFFFFFFFFFFFFFFFFFFFFFFFFFFFFFFFFFFFFF DUP3 AND SWAP1 POP SWAP2 SWAP1 POP JUMP JUMPDEST PUSH0 PUSH2 0x573 DUP3 PUSH2 0x54A JUMP JUMPDEST SWAP1 POP SWAP2 SWAP1 POP JUMP JUMPDEST PUSH2 0x583 DUP2 PUSH2 0x569 JUMP JUMPDEST DUP2 EQ PUSH2 0x58D JUMPI PUSH0 DUP1 REVERT JUMPDEST POP JUMP JUMPDEST PUSH0 DUP2 CALLDATALOAD SWAP1 POP PUSH2 0x59E DUP2 PUSH2 0x57A JUMP JUMPDEST SWAP3 SWAP2 POP POP JUMP JUMPDEST PUSH0 PUSH1 0x20 DUP3 DUP5 SUB SLT ISZERO PUSH2 0x5B9 JUMPI PUSH2 0x5B8 PUSH2 0x354 JUMP JUMPDEST JUMPDEST PUSH0 PUSH2 0x5C6 DUP5 DUP3 DUP6 ADD PUSH2 0x590 JUMP JUMPDEST SWAP2 POP POP SWAP3 SWAP2 POP POP JUMP JUMPDEST PUSH2 0x5D8 DUP2 PUSH2 0x569 JUMP JUMPDEST DUP3 MSTORE POP POP JUMP JUMPDEST PUSH0 DUP2 MLOAD SWAP1 POP SWAP2 SWAP1 POP JUMP JUMPDEST PUSH0 DUP3 DUP3 MSTORE PUSH1 0x20 DUP3 ADD SWAP1 POP SWAP3 SWAP2 POP POP JUMP JUMPDEST DUP3 DUP2 DUP4 MCOPY PUSH0 DUP4 DUP4 ADD MSTORE POP POP POP JUMP JUMPDEST PUSH0 PUSH2 0x610 DUP3 PUSH2 0x5DE JUMP JUMPDEST PUSH2 0x61A DUP2 DUP6 PUSH2 0x5E8 JUMP JUMPDEST SWAP4 POP PUSH2 0x62A DUP2 DUP6 PUSH1 0x20 DUP7 ADD PUSH2 0x5F8 JUMP JUMPDEST PUSH2 0x633 DUP2 PUSH2 0x364 JUMP JUMPDEST DUP5 ADD SWAP2 POP POP SWAP3 SWAP2 POP POP JUMP JUMPDEST PUSH0 PUSH1 0x80 DUP3 ADD SWAP1 POP PUSH2 0x651 PUSH0 DUP4 ADD DUP8 PUSH2 0x5CF JUMP JUMPDEST DUP2 DUP2 SUB PUSH1 0x20 DUP4 ADD MSTORE PUSH2 0x663 DUP2 DUP7 PUSH2 0x606 JUMP JUMPDEST SWAP1 POP PUSH2 0x672 PUSH1 0x40 DUP4 ADD DUP6 PUSH2 0x323 JUMP JUMPDEST DUP2 DUP2 SUB PUSH1 0x60 DUP4 ADD MSTORE PUSH2 0x684 DUP2 DUP5 PUSH2 0x606 JUMP JUMPDEST SWAP1 POP SWAP6 SWAP5 POP POP POP POP POP JUMP JUMPDEST PUSH32 0x4E487B7100000000000000000000000000000000000000000000000000000000 PUSH0 MSTORE PUSH1 0x22 PUSH1 0x4 MSTORE PUSH1 0x24 PUSH0 REVERT JUMPDEST PUSH0 PUSH1 0x2 DUP3 DIV SWAP1 POP PUSH1 0x1 DUP3 AND DUP1 PUSH2 0x6D3 JUMPI PUSH1 0x7F DUP3 AND SWAP2 POP JUMPDEST PUSH1 0x20 DUP3 LT DUP2 SUB PUSH2 0x6E6 JUMPI PUSH2 0x6E5 PUSH2 0x68F JUMP JUMPDEST JUMPDEST POP SWAP2 SWAP1 POP JUMP JUMPDEST PUSH0 DUP2 SWAP1 POP DUP2 PUSH0 MSTORE PUSH1 0x20 PUSH0 KECCAK256 SWAP1 POP SWAP2 SWAP1 POP JUMP JUMPDEST PUSH0 PUSH1 0x20 PUSH1 0x1F DUP4 ADD DIV SWAP1 POP SWAP2 SWAP1 POP JUMP JUMPDEST PUSH0 DUP3 DUP3 SHL SWAP1 POP SWAP3 SWAP2 POP POP JUMP JUMPDEST PUSH0 PUSH1 0x8 DUP4 MUL PUSH2 0x748 PUSH32 0xFFFFFFFFFFFFFFFFFFFFFFFFFFFFFFFFFFFFFFFFFFFFFFFFFFFFFFFFFFFFFFFF DUP3 PUSH2 0x70D JUMP JUMPDEST PUSH2 0x752 DUP7 DUP4 PUSH2 0x70D JUMP JUMPDEST SWAP6 POP DUP1 NOT DUP5 AND SWAP4 POP DUP1 DUP7 AND DUP5 OR SWAP3 POP POP POP SWAP4 SWAP3 POP POP POP JUMP JUMPDEST PUSH0 DUP2 SWAP1 POP SWAP2 SWAP1 POP JUMP JUMPDEST PUSH0 PUSH2 0x78D PUSH2 0x788 PUSH2 0x783 DUP5 PUSH2 0x31A JUMP JUMPDEST PUSH2 0x76A JUMP JUMPDEST PUSH2 0x31A JUMP JUMPDEST SWAP1 POP SWAP2 SWAP1 POP JUMP JUMPDEST PUSH0 DUP2 SWAP1 POP SWAP2 SWAP1 POP JUMP JUMPDEST PUSH2 0x7A6 DUP4 PUSH2 0x773 JUMP JUMPDEST PUSH2 0x7BA PUSH2 0x7B2 DUP3 PUSH2 0x794 JUMP JUMPDEST DUP5 DUP5 SLOAD PUSH2 0x719 JUMP JUMPDEST DUP3 SSTORE POP POP POP POP JUMP JUMPDEST PUSH0 SWAP1 JUMP JUMPDEST PUSH2 0x7CE PUSH2 0x7C2 JUMP JUMPDEST PUSH2 0x7D9 DUP2 DUP5 DUP5 PUSH2 0x79D JUMP JUMPDEST POP POP POP JUMP JUMPDEST JUMPDEST DUP2 DUP2 LT ISZERO PUSH2 0x7FC JUMPI PUSH2 0x7F1 PUSH0 DUP3 PUSH2 0x7C6 JUMP JUMPDEST PUSH1 0x1 DUP2 ADD SWAP1 POP PUSH2 0x7DF JUMP JUMPDEST POP POP JUMP JUMPDEST PUSH1 0x1F DUP3 GT ISZERO PUSH2 0x841 JUMPI PUSH2 0x812 DUP2 PUSH2 0x6EC JUMP JUMPDEST PUSH2 0x81B DUP5 PUSH2 0x6FE JUMP JUMPDEST DUP2 ADD PUSH1 0x20 DUP6 LT ISZERO PUSH2 0x82A JUMPI DUP2 SWAP1 POP JUMPDEST PUSH2 0x83E PUSH2 0x836 DUP6 PUSH2 0x6FE JUMP JUMPDEST DUP4 ADD DUP3 PUSH2 0x7DE JUMP JUMPDEST POP POP JUMPDEST POP POP POP JUMP JUMPDEST PUSH0 DUP3 DUP3 SHR SWAP1 POP SWAP3 SWAP2 POP POP JUMP JUMPDEST PUSH0 PUSH2 0x861 PUSH0 NOT DUP5 PUSH1 0x8 MUL PUSH2 0x846 JUMP JUMPDEST NOT DUP1 DUP4 AND SWAP2 POP POP SWAP3 SWAP2 POP POP JUMP JUMPDEST PUSH0 PUSH2 0x879 DUP4 DUP4 PUSH2 0x852 JUMP JUMPDEST SWAP2 POP DUP3 PUSH1 0x2 MUL DUP3 OR SWAP1 POP SWAP3 SWAP2 POP POP JUMP JUMPDEST PUSH2 0x892 DUP3 PUSH2 0x5DE JUMP JUMPDEST PUSH8 0xFFFFFFFFFFFFFFFF DUP2 GT ISZERO PUSH2 0x8AB JUMPI PUSH2 0x8AA PUSH2 0x374 JUMP JUMPDEST JUMPDEST PUSH2 0x8B5 DUP3 SLOAD PUSH2 0x6BC JUMP JUMPDEST PUSH2 0x8C0 DUP3 DUP3 DUP6 PUSH2 0x800 JUMP JUMPDEST PUSH0 PUSH1 0x20 SWAP1 POP PUSH1 0x1F DUP4 GT PUSH1 0x1 DUP2 EQ PUSH2 0x8F1 JUMPI PUSH0 DUP5 ISZERO PUSH2 0x8DF JUMPI DUP3 DUP8 ADD MLOAD SWAP1 POP JUMPDEST PUSH2 0x8E9 DUP6 DUP3 PUSH2 0x86E JUMP JUMPDEST DUP7 SSTORE POP PUSH2 0x950 JUMP JUMPDEST PUSH1 0x1F NOT DUP5 AND PUSH2 0x8FF DUP7 PUSH2 0x6EC JUMP JUMPDEST PUSH0 JUMPDEST DUP3 DUP2 LT ISZERO PUSH2 0x926 JUMPI DUP5 DUP10 ADD MLOAD DUP3 SSTORE PUSH1 0x1 DUP3 ADD SWAP2 POP PUSH1 0x20 DUP6 ADD SWAP5 POP PUSH1 0x20 DUP2 ADD SWAP1 POP PUSH2 0x901 JUMP JUMPDEST DUP7 DUP4 LT ISZERO PUSH2 0x943 JUMPI DUP5 DUP10 ADD MLOAD PUSH2 0x93F PUSH1 0x1F DUP10 AND DUP3 PUSH2 0x852 JUMP JUMPDEST DUP4 SSTORE POP JUMPDEST PUSH1 0x1 PUSH1 0x2 DUP9 MUL ADD DUP9 SSTORE POP POP POP JUMPDEST POP POP POP POP POP POP JUMP JUMPDEST PUSH32 0x4E487B7100000000000000000000000000000000000000000000000000000000 PUSH0 MSTORE PUSH1 0x11 PUSH1 0x4 MSTORE PUSH1 0x24 PUSH0 REVERT JUMPDEST PUSH0 PUSH2 0x98F DUP3 PUSH2 0x31A JUMP JUMPDEST SWAP2 POP PUSH2 0x99A DUP4 PUSH2 0x31A JUMP JUMPDEST SWAP3 POP DUP3 DUP3 ADD SWAP1 POP DUP1 DUP3 GT ISZERO PUSH2 0x9B2 JUMPI PUSH2 0x9B1 PUSH2 0x958 JUMP JUMPDEST JUMPDEST SWAP3 SWAP2 POP POP JUMP INVALID LOG2 PUSH5 0x6970667358 0x22 SLT KECCAK256 SAR BYTE GASLIMIT PC 0xD3 0xB7 0xA6 0xC4 PUSH15 0xEF465729831DBCD5C4AF4D887E66D2 PUSH22 0x7F71AD26F24CD264736F6C634300081A003300000000 "
				},
				"gasEstimates": {
					"creation": {
						"codeDepositCost": "508400",
						"executionCost": "5546",
						"totalCost": "513946"
					},
					"external": {
						"addPlayer(string,uint256,string)": "infinite",
						"countPlayer()": "2402",
						"players(address)": "infinite"
					}
				},
				"methodIdentifiers": {
					"addPlayer(string,uint256,string)": "aab48c52",
					"countPlayer()": "aaa006b2",
					"players(address)": "e2eb41ff"
				}
			},
			"storageLayout": {
				"storage": [
					{
						"astId": 22,
						"contract": "thirddatatype.sol:Game",
						"label": "countPlayer",
						"offset": 0,
						"slot": "0",
						"type": "t_uint256"
					},
					{
						"astId": 27,
						"contract": "thirddatatype.sol:Game",
						"label": "players",
						"offset": 0,
						"slot": "1",
						"type": "t_mapping(t_address,t_struct(Player)36_storage)"
					}
				],
				"types": {
					"t_address": {
						"encoding": "inplace",
						"label": "address",
						"numberOfBytes": "20"
					},
					"t_mapping(t_address,t_struct(Player)36_storage)": {
						"encoding": "mapping",
						"key": "t_address",
						"label": "mapping(address => struct Game.Player)",
						"numberOfBytes": "32",
						"value": "t_struct(Player)36_storage"
					},
					"t_string_storage": {
						"encoding": "bytes",
						"label": "string",
						"numberOfBytes": "32"
					},
					"t_struct(Player)36_storage": {
						"encoding": "inplace",
						"label": "struct Game.Player",
						"members": [
							{
								"astId": 29,
								"contract": "thirddatatype.sol:Game",
								"label": "addressPlayer",
								"offset": 0,
								"slot": "0",
								"type": "t_address"
							},
							{
								"astId": 31,
								"contract": "thirddatatype.sol:Game",
								"label": "fullName",
								"offset": 0,
								"slot": "1",
								"type": "t_string_storage"
							},
							{
								"astId": 33,
								"contract": "thirddatatype.sol:Game",
								"label": "age",
								"offset": 0,
								"slot": "2",
								"type": "t_uint256"
							},
							{
								"astId": 35,
								"contract": "thirddatatype.sol:Game",
								"label": "sex",
								"offset": 0,
								"slot": "3",
								"type": "t_string_storage"
							}
						],
						"numberOfBytes": "128"
					},
					"t_uint256": {
						"encoding": "inplace",
						"label": "uint256",
						"numberOfBytes": "32"
					}
				}
			},
			"userdoc": {
				"kind": "user",
				"methods": {},
				"version": 1
			}
		}
	}
}